{
  "contractName": "ERC721Connector",
  "abi": [
    {
      "inputs": [
        {
          "internalType": "string",
          "name": "name",
          "type": "string"
        },
        {
          "internalType": "string",
          "name": "symbol",
          "type": "string"
        }
      ],
      "stateMutability": "nonpayable",
      "type": "constructor"
    },
    {
      "anonymous": false,
      "inputs": [
        {
          "indexed": true,
          "internalType": "address",
          "name": "owner",
          "type": "address"
        },
        {
          "indexed": true,
          "internalType": "address",
          "name": "approved",
          "type": "address"
        },
        {
          "indexed": true,
          "internalType": "uint256",
          "name": "tokenId",
          "type": "uint256"
        }
      ],
      "name": "Approval",
      "type": "event"
    },
    {
      "anonymous": false,
      "inputs": [
        {
          "indexed": true,
          "internalType": "address",
          "name": "owner",
          "type": "address"
        },
        {
          "indexed": true,
          "internalType": "address",
          "name": "operator",
          "type": "address"
        },
        {
          "indexed": false,
          "internalType": "bool",
          "name": "approved",
          "type": "bool"
        }
      ],
      "name": "ApprovalForAll",
      "type": "event"
    },
    {
      "anonymous": false,
      "inputs": [
        {
          "indexed": true,
          "internalType": "address",
          "name": "from",
          "type": "address"
        },
        {
          "indexed": true,
          "internalType": "address",
          "name": "to",
          "type": "address"
        },
        {
          "indexed": true,
          "internalType": "uint256",
          "name": "tokenId",
          "type": "uint256"
        }
      ],
      "name": "Transfer",
      "type": "event"
    },
    {
      "inputs": [
        {
          "internalType": "address",
          "name": "owner",
          "type": "address"
        }
      ],
      "name": "balanceOf",
      "outputs": [
        {
          "internalType": "uint256",
          "name": "",
          "type": "uint256"
        }
      ],
      "stateMutability": "view",
      "type": "function"
    },
    {
      "inputs": [],
      "name": "name",
      "outputs": [
        {
          "internalType": "string",
          "name": "",
          "type": "string"
        }
      ],
      "stateMutability": "view",
      "type": "function"
    },
    {
      "inputs": [
        {
          "internalType": "uint256",
          "name": "tokenId",
          "type": "uint256"
        }
      ],
      "name": "ownerOf",
      "outputs": [
        {
          "internalType": "address",
          "name": "",
          "type": "address"
        }
      ],
      "stateMutability": "view",
      "type": "function"
    },
    {
      "inputs": [],
      "name": "symbol",
      "outputs": [
        {
          "internalType": "string",
          "name": "",
          "type": "string"
        }
      ],
      "stateMutability": "view",
      "type": "function"
    },
    {
      "inputs": [
        {
          "internalType": "uint256",
          "name": "index",
          "type": "uint256"
        }
      ],
      "name": "tokenByIndex",
      "outputs": [
        {
          "internalType": "uint256",
          "name": "",
          "type": "uint256"
        }
      ],
      "stateMutability": "view",
      "type": "function"
    },
    {
      "inputs": [
        {
          "internalType": "address",
          "name": "owner",
          "type": "address"
        },
        {
          "internalType": "uint256",
          "name": "index",
          "type": "uint256"
        }
      ],
      "name": "tokenOfOwnerByIndex",
      "outputs": [
        {
          "internalType": "uint256",
          "name": "",
          "type": "uint256"
        }
      ],
      "stateMutability": "view",
      "type": "function"
    },
    {
      "inputs": [],
      "name": "totalSupply",
      "outputs": [
        {
          "internalType": "uint256",
          "name": "",
          "type": "uint256"
        }
      ],
      "stateMutability": "view",
      "type": "function"
    },
    {
      "inputs": [
        {
          "internalType": "address",
          "name": "from",
          "type": "address"
        },
        {
          "internalType": "address",
          "name": "to",
          "type": "address"
        },
        {
          "internalType": "uint256",
          "name": "tokenId",
          "type": "uint256"
        }
      ],
      "name": "transferFrom",
      "outputs": [],
      "stateMutability": "payable",
      "type": "function"
    }
  ],
  "bytecode": "0x60806040523480156200001157600080fd5b5060405162001561380380620015618339818101604052810190620000379190620002c2565b818181600090805190602001906200005192919062000075565b5080600190805190602001906200006a92919062000075565b5050505050620003ab565b828054620000839062000376565b90600052602060002090601f016020900481019282620000a75760008555620000f3565b82601f10620000c257805160ff1916838001178555620000f3565b82800160010185558215620000f3579182015b82811115620000f2578251825591602001919060010190620000d5565b5b50905062000102919062000106565b5090565b5b808211156200012157600081600090555060010162000107565b5090565b6000604051905090565b600080fd5b600080fd5b600080fd5b600080fd5b6000601f19601f8301169050919050565b7f4e487b7100000000000000000000000000000000000000000000000000000000600052604160045260246000fd5b6200018e8262000143565b810181811067ffffffffffffffff82111715620001b057620001af62000154565b5b80604052505050565b6000620001c562000125565b9050620001d3828262000183565b919050565b600067ffffffffffffffff821115620001f657620001f562000154565b5b620002018262000143565b9050602081019050919050565b60005b838110156200022e57808201518184015260208101905062000211565b838111156200023e576000848401525b50505050565b60006200025b6200025584620001d8565b620001b9565b9050828152602081018484840111156200027a57620002796200013e565b5b620002878482856200020e565b509392505050565b600082601f830112620002a757620002a662000139565b5b8151620002b984826020860162000244565b91505092915050565b60008060408385031215620002dc57620002db6200012f565b5b600083015167ffffffffffffffff811115620002fd57620002fc62000134565b5b6200030b858286016200028f565b925050602083015167ffffffffffffffff8111156200032f576200032e62000134565b5b6200033d858286016200028f565b9150509250929050565b7f4e487b7100000000000000000000000000000000000000000000000000000000600052602260045260246000fd5b600060028204905060018216806200038f57607f821691505b602082108103620003a557620003a462000347565b5b50919050565b6111a680620003bb6000396000f3fe60806040526004361061007b5760003560e01c80634f6ccce71161004e5780634f6ccce71461012f5780636352211e1461016c57806370a08231146101a957806395d89b41146101e65761007b565b806306fdde031461008057806318160ddd146100ab57806323b872dd146100d65780632f745c59146100f2575b600080fd5b34801561008c57600080fd5b50610095610211565b6040516100a29190610a0e565b60405180910390f35b3480156100b757600080fd5b506100c06102a3565b6040516100cd9190610a49565b60405180910390f35b6100f060048036038101906100eb9190610af3565b6102b0565b005b3480156100fe57600080fd5b5061011960048036038101906101149190610b46565b6105ac565b6040516101269190610a49565b60405180910390f35b34801561013b57600080fd5b5061015660048036038101906101519190610b86565b61065c565b6040516101639190610a49565b60405180910390f35b34801561017857600080fd5b50610193600480360381019061018e9190610b86565b6106c0565b6040516101a09190610bc2565b60405180910390f35b3480156101b557600080fd5b506101d060048036038101906101cb9190610bdd565b6107ba565b6040516101dd9190610a49565b60405180910390f35b3480156101f257600080fd5b506101fb610871565b6040516102089190610a0e565b60405180910390f35b60606000805461022090610c39565b80601f016020809104026020016040519081016040528092919081815260200182805461024c90610c39565b80156102995780601f1061026e57610100808354040283529160200191610299565b820191906000526020600020905b81548152906001019060200180831161027c57829003601f168201915b5050505050905090565b6000600480549050905090565b600073ffffffffffffffffffffffffffffffffffffffff168373ffffffffffffffffffffffffffffffffffffffff160361031f576040517f08c379a000000000000000000000000000000000000000000000000000000000815260040161031690610cdc565b60405180910390fd5b600073ffffffffffffffffffffffffffffffffffffffff168273ffffffffffffffffffffffffffffffffffffffff160361038e576040517f08c379a000000000000000000000000000000000000000000000000000000000815260040161038590610d6e565b60405180910390fd5b61039781610903565b6103d6576040517f08c379a00000000000000000000000000000000000000000000000000000000081526004016103cd90610dda565b60405180910390fd5b8273ffffffffffffffffffffffffffffffffffffffff166103f6826106c0565b73ffffffffffffffffffffffffffffffffffffffff161461044c576040517f08c379a000000000000000000000000000000000000000000000000000000000815260040161044390610e6c565b60405180910390fd5b6001600360008573ffffffffffffffffffffffffffffffffffffffff1673ffffffffffffffffffffffffffffffffffffffff168152602001908152602001600020600082825461049c9190610ebb565b92505081905550816002600083815260200190815260200160002060006101000a81548173ffffffffffffffffffffffffffffffffffffffff021916908373ffffffffffffffffffffffffffffffffffffffff1602179055506001600360008473ffffffffffffffffffffffffffffffffffffffff1673ffffffffffffffffffffffffffffffffffffffff16815260200190815260200160002060008282546105459190610eef565b92505081905550808273ffffffffffffffffffffffffffffffffffffffff168473ffffffffffffffffffffffffffffffffffffffff167fddf252ad1be2c89b69c2b068fc378daa952ba7f163c4a11628f55a4df523b3ef60405160405180910390a4505050565b60006105b7836107ba565b82106105f8576040517f08c379a00000000000000000000000000000000000000000000000000000000081526004016105ef90610fb7565b60405180910390fd5b600660008473ffffffffffffffffffffffffffffffffffffffff1673ffffffffffffffffffffffffffffffffffffffff168152602001908152602001600020828154811061064957610648610fd7565b5b9060005260206000200154905092915050565b600060048054905082106106a5576040517f08c379a000000000000000000000000000000000000000000000000000000000815260040161069c90611078565b60405180910390fd5b60056000838152602001908152602001600020549050919050565b60006106cb82610903565b61070a576040517f08c379a000000000000000000000000000000000000000000000000000000000815260040161070190610dda565b60405180910390fd5b60006002600084815260200190815260200160002060009054906101000a900473ffffffffffffffffffffffffffffffffffffffff169050600073ffffffffffffffffffffffffffffffffffffffff168173ffffffffffffffffffffffffffffffffffffffff16036107b1576040517f08c379a00000000000000000000000000000000000000000000000000000000081526004016107a8906110e4565b60405180910390fd5b80915050919050565b60008073ffffffffffffffffffffffffffffffffffffffff168273ffffffffffffffffffffffffffffffffffffffff160361082a576040517f08c379a000000000000000000000000000000000000000000000000000000000815260040161082190611150565b60405180910390fd5b600360008373ffffffffffffffffffffffffffffffffffffffff1673ffffffffffffffffffffffffffffffffffffffff168152602001908152602001600020549050919050565b60606001805461088090610c39565b80601f01602080910402602001604051908101604052809291908181526020018280546108ac90610c39565b80156108f95780601f106108ce576101008083540402835291602001916108f9565b820191906000526020600020905b8154815290600101906020018083116108dc57829003601f168201915b5050505050905090565b6000806002600084815260200190815260200160002060009054906101000a900473ffffffffffffffffffffffffffffffffffffffff169050600073ffffffffffffffffffffffffffffffffffffffff168173ffffffffffffffffffffffffffffffffffffffff161415915050919050565b600081519050919050565b600082825260208201905092915050565b60005b838110156109af578082015181840152602081019050610994565b838111156109be576000848401525b50505050565b6000601f19601f8301169050919050565b60006109e082610975565b6109ea8185610980565b93506109fa818560208601610991565b610a03816109c4565b840191505092915050565b60006020820190508181036000830152610a2881846109d5565b905092915050565b6000819050919050565b610a4381610a30565b82525050565b6000602082019050610a5e6000830184610a3a565b92915050565b600080fd5b600073ffffffffffffffffffffffffffffffffffffffff82169050919050565b6000610a9482610a69565b9050919050565b610aa481610a89565b8114610aaf57600080fd5b50565b600081359050610ac181610a9b565b92915050565b610ad081610a30565b8114610adb57600080fd5b50565b600081359050610aed81610ac7565b92915050565b600080600060608486031215610b0c57610b0b610a64565b5b6000610b1a86828701610ab2565b9350506020610b2b86828701610ab2565b9250506040610b3c86828701610ade565b9150509250925092565b60008060408385031215610b5d57610b5c610a64565b5b6000610b6b85828601610ab2565b9250506020610b7c85828601610ade565b9150509250929050565b600060208284031215610b9c57610b9b610a64565b5b6000610baa84828501610ade565b91505092915050565b610bbc81610a89565b82525050565b6000602082019050610bd76000830184610bb3565b92915050565b600060208284031215610bf357610bf2610a64565b5b6000610c0184828501610ab2565b91505092915050565b7f4e487b7100000000000000000000000000000000000000000000000000000000600052602260045260246000fd5b60006002820490506001821680610c5157607f821691505b602082108103610c6457610c63610c0a565b5b50919050565b7f4552433732313a7472616e7366657246726f6d3a3a66726f6d20696e76616c6960008201527f645f616464726573730000000000000000000000000000000000000000000000602082015250565b6000610cc6602983610980565b9150610cd182610c6a565b604082019050919050565b60006020820190508181036000830152610cf581610cb9565b9050919050565b7f4552433732313a7472616e7366657246726f6d3a3a746f20696e76616c69645f60008201527f6164647265737300000000000000000000000000000000000000000000000000602082015250565b6000610d58602783610980565b9150610d6382610cfc565b604082019050919050565b60006020820190508181036000830152610d8781610d4b565b9050919050565b7f4552433732313a6f776e65724f6620696e7661696c64746f6b656e4964000000600082015250565b6000610dc4601d83610980565b9150610dcf82610d8e565b602082019050919050565b60006020820190508181036000830152610df381610db7565b9050919050565b7f4552433732313a7472616e7366657246726f6d20796f75725f6e6f745f6f776e60008201527f6572000000000000000000000000000000000000000000000000000000000000602082015250565b6000610e56602283610980565b9150610e6182610dfa565b604082019050919050565b60006020820190508181036000830152610e8581610e49565b9050919050565b7f4e487b7100000000000000000000000000000000000000000000000000000000600052601160045260246000fd5b6000610ec682610a30565b9150610ed183610a30565b925082821015610ee457610ee3610e8c565b5b828203905092915050565b6000610efa82610a30565b9150610f0583610a30565b9250827fffffffffffffffffffffffffffffffffffffffffffffffffffffffffffffffff03821115610f3a57610f39610e8c565b5b828201905092915050565b7f455243373231456e756d657261626c653a746f6b656e4f664f776e657242794960008201527f6e64657820696e76616c69645f696e6465780000000000000000000000000000602082015250565b6000610fa1603283610980565b9150610fac82610f45565b604082019050919050565b60006020820190508181036000830152610fd081610f94565b9050919050565b7f4e487b7100000000000000000000000000000000000000000000000000000000600052603260045260246000fd5b7f455243373231456e756d657261626c653a746f6b656e4279496e64657820696e60008201527f76616c69645f696e646578000000000000000000000000000000000000000000602082015250565b6000611062602b83610980565b915061106d82611006565b604082019050919050565b6000602082019050818103600083015261109181611055565b9050919050565b7f4552433732313a6f776e65724f6620696e76616c69645f616464726573730000600082015250565b60006110ce601e83610980565b91506110d982611098565b602082019050919050565b600060208201905081810360008301526110fd816110c1565b9050919050565b7f4552433732313a62616c616e63654f6620696e76616c69645f61646472657373600082015250565b600061113a602083610980565b915061114582611104565b602082019050919050565b600060208201905081810360008301526111698161112d565b905091905056fea264697066735822122052a636c0a0e067370b4764dff372db0204885dcb1911fea41c9219762e2e4ae164736f6c634300080d0033",
  "immutableReferences": {},
  "source": "// SPDX-License-Identifier: MIT\npragma solidity ^0.8.0;\n\nimport './ERC721Metadata.sol';\nimport './ERC721Enumerable.sol';\n\ncontract ERC721Connector is ERC721Metadata, ERC721Enumerable {\n\n    constructor(string memory name, string memory symbol) ERC721Metadata(name, symbol) {\n\n    }    \n\n}",
  "sourcePath": "/Volumes/Code/simple-nft-marketplace/src/contracts/ERC721Connector.sol",
  "compiler": {
    "name": "solc",
    "version": "0.8.13+commit.abaa5c0e.Emscripten.clang"
  },
  "schemaVersion": "3.4.7",
  "updatedAt": "2022-04-28T17:28:21.641Z",
  "devdoc": {
    "kind": "dev",
    "methods": {
      "tokenByIndex(uint256)": {
        "details": "Returns a token ID at a given `index` of all the tokens stored by the contract. Use along with {totalSupply} to enumerate all tokens."
      },
      "tokenOfOwnerByIndex(address,uint256)": {
        "details": "Returns a token ID owned by `owner` at a given `index` of its token list. Use along with {balanceOf} to enumerate all of ``owner``'s tokens."
      }
    },
    "version": 1
  },
  "userdoc": {
    "kind": "user",
    "methods": {},
    "version": 1
  }
}