{
  "contractName": "ERC721Enumerable",
  "abi": [
    {
      "anonymous": false,
      "inputs": [
        {
          "indexed": true,
          "internalType": "address",
          "name": "owner",
          "type": "address"
        },
        {
          "indexed": true,
          "internalType": "address",
          "name": "approved",
          "type": "address"
        },
        {
          "indexed": true,
          "internalType": "uint256",
          "name": "tokenId",
          "type": "uint256"
        }
      ],
      "name": "Approval",
      "type": "event"
    },
    {
      "anonymous": false,
      "inputs": [
        {
          "indexed": true,
          "internalType": "address",
          "name": "owner",
          "type": "address"
        },
        {
          "indexed": true,
          "internalType": "address",
          "name": "operator",
          "type": "address"
        },
        {
          "indexed": false,
          "internalType": "bool",
          "name": "approved",
          "type": "bool"
        }
      ],
      "name": "ApprovalForAll",
      "type": "event"
    },
    {
      "anonymous": false,
      "inputs": [
        {
          "indexed": true,
          "internalType": "address",
          "name": "from",
          "type": "address"
        },
        {
          "indexed": true,
          "internalType": "address",
          "name": "to",
          "type": "address"
        },
        {
          "indexed": true,
          "internalType": "uint256",
          "name": "tokenId",
          "type": "uint256"
        }
      ],
      "name": "Transfer",
      "type": "event"
    },
    {
      "inputs": [
        {
          "internalType": "address",
          "name": "owner",
          "type": "address"
        }
      ],
      "name": "balanceOf",
      "outputs": [
        {
          "internalType": "uint256",
          "name": "",
          "type": "uint256"
        }
      ],
      "stateMutability": "view",
      "type": "function"
    },
    {
      "inputs": [
        {
          "internalType": "uint256",
          "name": "tokenId",
          "type": "uint256"
        }
      ],
      "name": "ownerOf",
      "outputs": [
        {
          "internalType": "address",
          "name": "",
          "type": "address"
        }
      ],
      "stateMutability": "view",
      "type": "function"
    },
    {
      "inputs": [
        {
          "internalType": "address",
          "name": "from",
          "type": "address"
        },
        {
          "internalType": "address",
          "name": "to",
          "type": "address"
        },
        {
          "internalType": "uint256",
          "name": "tokenId",
          "type": "uint256"
        }
      ],
      "name": "transferFrom",
      "outputs": [],
      "stateMutability": "payable",
      "type": "function"
    },
    {
      "inputs": [],
      "name": "totalSupply",
      "outputs": [
        {
          "internalType": "uint256",
          "name": "",
          "type": "uint256"
        }
      ],
      "stateMutability": "view",
      "type": "function"
    },
    {
      "inputs": [
        {
          "internalType": "uint256",
          "name": "index",
          "type": "uint256"
        }
      ],
      "name": "tokenByIndex",
      "outputs": [
        {
          "internalType": "uint256",
          "name": "",
          "type": "uint256"
        }
      ],
      "stateMutability": "view",
      "type": "function"
    },
    {
      "inputs": [
        {
          "internalType": "address",
          "name": "owner",
          "type": "address"
        },
        {
          "internalType": "uint256",
          "name": "index",
          "type": "uint256"
        }
      ],
      "name": "tokenOfOwnerByIndex",
      "outputs": [
        {
          "internalType": "uint256",
          "name": "",
          "type": "uint256"
        }
      ],
      "stateMutability": "view",
      "type": "function"
    }
  ],
  "bytecode": "0x608060405234801561001057600080fd5b50610ef7806100206000396000f3fe6080604052600436106100555760003560e01c806318160ddd1461005a57806323b872dd146100855780632f745c59146100a15780634f6ccce7146100de5780636352211e1461011b57806370a0823114610158575b600080fd5b34801561006657600080fd5b5061006f610195565b60405161007c91906107e9565b60405180910390f35b61009f600480360381019061009a9190610893565b6101a2565b005b3480156100ad57600080fd5b506100c860048036038101906100c391906108e6565b61049b565b6040516100d591906107e9565b60405180910390f35b3480156100ea57600080fd5b5061010560048036038101906101009190610926565b61054b565b60405161011291906107e9565b60405180910390f35b34801561012757600080fd5b50610142600480360381019061013d9190610926565b6105af565b60405161014f9190610962565b60405180910390f35b34801561016457600080fd5b5061017f600480360381019061017a919061097d565b6106a8565b60405161018c91906107e9565b60405180910390f35b6000600280549050905090565b600073ffffffffffffffffffffffffffffffffffffffff168373ffffffffffffffffffffffffffffffffffffffff1603610211576040517f08c379a000000000000000000000000000000000000000000000000000000000815260040161020890610a2d565b60405180910390fd5b600073ffffffffffffffffffffffffffffffffffffffff168273ffffffffffffffffffffffffffffffffffffffff1603610280576040517f08c379a000000000000000000000000000000000000000000000000000000000815260040161027790610abf565b60405180910390fd5b6102898161075f565b6102c8576040517f08c379a00000000000000000000000000000000000000000000000000000000081526004016102bf90610b2b565b60405180910390fd5b8273ffffffffffffffffffffffffffffffffffffffff166102e8826105af565b73ffffffffffffffffffffffffffffffffffffffff161461033e576040517f08c379a000000000000000000000000000000000000000000000000000000000815260040161033590610bbd565b60405180910390fd5b60018060008573ffffffffffffffffffffffffffffffffffffffff1673ffffffffffffffffffffffffffffffffffffffff168152602001908152602001600020600082825461038d9190610c0c565b925050819055508160008083815260200190815260200160002060006101000a81548173ffffffffffffffffffffffffffffffffffffffff021916908373ffffffffffffffffffffffffffffffffffffffff16021790555060018060008473ffffffffffffffffffffffffffffffffffffffff1673ffffffffffffffffffffffffffffffffffffffff16815260200190815260200160002060008282546104349190610c40565b92505081905550808273ffffffffffffffffffffffffffffffffffffffff168473ffffffffffffffffffffffffffffffffffffffff167fddf252ad1be2c89b69c2b068fc378daa952ba7f163c4a11628f55a4df523b3ef60405160405180910390a4505050565b60006104a6836106a8565b82106104e7576040517f08c379a00000000000000000000000000000000000000000000000000000000081526004016104de90610d08565b60405180910390fd5b600460008473ffffffffffffffffffffffffffffffffffffffff1673ffffffffffffffffffffffffffffffffffffffff168152602001908152602001600020828154811061053857610537610d28565b5b9060005260206000200154905092915050565b60006002805490508210610594576040517f08c379a000000000000000000000000000000000000000000000000000000000815260040161058b90610dc9565b60405180910390fd5b60036000838152602001908152602001600020549050919050565b60006105ba8261075f565b6105f9576040517f08c379a00000000000000000000000000000000000000000000000000000000081526004016105f090610b2b565b60405180910390fd5b600080600084815260200190815260200160002060009054906101000a900473ffffffffffffffffffffffffffffffffffffffff169050600073ffffffffffffffffffffffffffffffffffffffff168173ffffffffffffffffffffffffffffffffffffffff160361069f576040517f08c379a000000000000000000000000000000000000000000000000000000000815260040161069690610e35565b60405180910390fd5b80915050919050565b60008073ffffffffffffffffffffffffffffffffffffffff168273ffffffffffffffffffffffffffffffffffffffff1603610718576040517f08c379a000000000000000000000000000000000000000000000000000000000815260040161070f90610ea1565b60405180910390fd5b600160008373ffffffffffffffffffffffffffffffffffffffff1673ffffffffffffffffffffffffffffffffffffffff168152602001908152602001600020549050919050565b60008060008084815260200190815260200160002060009054906101000a900473ffffffffffffffffffffffffffffffffffffffff169050600073ffffffffffffffffffffffffffffffffffffffff168173ffffffffffffffffffffffffffffffffffffffff161415915050919050565b6000819050919050565b6107e3816107d0565b82525050565b60006020820190506107fe60008301846107da565b92915050565b600080fd5b600073ffffffffffffffffffffffffffffffffffffffff82169050919050565b600061083482610809565b9050919050565b61084481610829565b811461084f57600080fd5b50565b6000813590506108618161083b565b92915050565b610870816107d0565b811461087b57600080fd5b50565b60008135905061088d81610867565b92915050565b6000806000606084860312156108ac576108ab610804565b5b60006108ba86828701610852565b93505060206108cb86828701610852565b92505060406108dc8682870161087e565b9150509250925092565b600080604083850312156108fd576108fc610804565b5b600061090b85828601610852565b925050602061091c8582860161087e565b9150509250929050565b60006020828403121561093c5761093b610804565b5b600061094a8482850161087e565b91505092915050565b61095c81610829565b82525050565b60006020820190506109776000830184610953565b92915050565b60006020828403121561099357610992610804565b5b60006109a184828501610852565b91505092915050565b600082825260208201905092915050565b7f4552433732313a7472616e7366657246726f6d3a3a66726f6d20696e76616c6960008201527f645f616464726573730000000000000000000000000000000000000000000000602082015250565b6000610a176029836109aa565b9150610a22826109bb565b604082019050919050565b60006020820190508181036000830152610a4681610a0a565b9050919050565b7f4552433732313a7472616e7366657246726f6d3a3a746f20696e76616c69645f60008201527f6164647265737300000000000000000000000000000000000000000000000000602082015250565b6000610aa96027836109aa565b9150610ab482610a4d565b604082019050919050565b60006020820190508181036000830152610ad881610a9c565b9050919050565b7f4552433732313a6f776e65724f6620696e7661696c64746f6b656e4964000000600082015250565b6000610b15601d836109aa565b9150610b2082610adf565b602082019050919050565b60006020820190508181036000830152610b4481610b08565b9050919050565b7f4552433732313a7472616e7366657246726f6d20796f75725f6e6f745f6f776e60008201527f6572000000000000000000000000000000000000000000000000000000000000602082015250565b6000610ba76022836109aa565b9150610bb282610b4b565b604082019050919050565b60006020820190508181036000830152610bd681610b9a565b9050919050565b7f4e487b7100000000000000000000000000000000000000000000000000000000600052601160045260246000fd5b6000610c17826107d0565b9150610c22836107d0565b925082821015610c3557610c34610bdd565b5b828203905092915050565b6000610c4b826107d0565b9150610c56836107d0565b9250827fffffffffffffffffffffffffffffffffffffffffffffffffffffffffffffffff03821115610c8b57610c8a610bdd565b5b828201905092915050565b7f455243373231456e756d657261626c653a746f6b656e4f664f776e657242794960008201527f6e64657820696e76616c69645f696e6465780000000000000000000000000000602082015250565b6000610cf26032836109aa565b9150610cfd82610c96565b604082019050919050565b60006020820190508181036000830152610d2181610ce5565b9050919050565b7f4e487b7100000000000000000000000000000000000000000000000000000000600052603260045260246000fd5b7f455243373231456e756d657261626c653a746f6b656e4279496e64657820696e60008201527f76616c69645f696e646578000000000000000000000000000000000000000000602082015250565b6000610db3602b836109aa565b9150610dbe82610d57565b604082019050919050565b60006020820190508181036000830152610de281610da6565b9050919050565b7f4552433732313a6f776e65724f6620696e76616c69645f616464726573730000600082015250565b6000610e1f601e836109aa565b9150610e2a82610de9565b602082019050919050565b60006020820190508181036000830152610e4e81610e12565b9050919050565b7f4552433732313a62616c616e63654f6620696e76616c69645f61646472657373600082015250565b6000610e8b6020836109aa565b9150610e9682610e55565b602082019050919050565b60006020820190508181036000830152610eba81610e7e565b905091905056fea264697066735822122033fe9c0cace8684d7224c53f345cbfa3c1984ba7009b555abc14ce8903f5d16664736f6c634300080d0033",
  "immutableReferences": {},
  "source": "// SPDX-License-Identifier: MIT\npragma solidity ^0.8.0;\n\nimport './ERC721.sol';\n\ncontract ERC721Enumerable is ERC721 {\n\n    uint256[] private _allTokens;\n    // tokenIds => index position of the _allTokens\n    mapping(uint256 => uint256) private _allTokensIndex;\n    // owner => owned tokenIds array\n    mapping(address => uint256[]) private _ownedTokens;\n    // Token Ids => index position of the _ownedTokens list\n    mapping(uint256 => uint256) private _ownedTokensIndex;\n\n\n    function totalSupply() external view returns (uint256) {\n        return _allTokens.length;\n    }\n\n    /**\n     * @dev Returns a token ID at a given `index` of all the tokens stored by the contract.\n     * Use along with {totalSupply} to enumerate all tokens.\n     */\n    function tokenByIndex(uint256 index) external view returns (uint256) {\n        // require(index < totalSupply(), 'ERC721Enumerable:tokenByIndex invalid_index');\n        require(index < _allTokens.length, 'ERC721Enumerable:tokenByIndex invalid_index');\n\n        return _allTokensIndex[index];\n    }\n\n    /**\n     * @dev Returns a token ID owned by `owner` at a given `index` of its token list.\n     * Use along with {balanceOf} to enumerate all of ``owner``'s tokens.\n     */\n    function tokenOfOwnerByIndex(address owner, uint256 index) external view returns (uint256) {\n        require(index < balanceOf(owner), 'ERC721Enumerable:tokenOfOwnerByIndex invalid_index');\n        return _ownedTokens[owner][index];\n    }\n\n    function _mint(address to, uint256 _tokenId) internal override(ERC721) {\n        super._mint(to, _tokenId);\n        _addTokensToAllTokenEnumerable(_tokenId);\n        _addTokensToOwnerEnumerable(to, _tokenId);\n\n    }\n\n    function _addTokensToOwnerEnumerable(address _owner, uint256 _tokenId) private {\n        _ownedTokens[_owner].push(_tokenId);\n        _ownedTokensIndex[_tokenId] = _ownedTokens[_owner].length;\n    }\n\n    function _addTokensToAllTokenEnumerable(uint256 _tokenId) private {\n        _allTokens.push(_tokenId);\n        _allTokensIndex[_tokenId] = _allTokens.length - 1;\n    }\n\n}\n",
  "sourcePath": "/Volumes/Code/simple-nft-marketplace/src/contracts/ERC721Enumerable.sol",
  "compiler": {
    "name": "solc",
    "version": "0.8.13+commit.abaa5c0e.Emscripten.clang"
  },
  "schemaVersion": "3.4.7",
  "updatedAt": "2022-04-28T17:28:21.645Z",
  "devdoc": {
    "kind": "dev",
    "methods": {
      "tokenByIndex(uint256)": {
        "details": "Returns a token ID at a given `index` of all the tokens stored by the contract. Use along with {totalSupply} to enumerate all tokens."
      },
      "tokenOfOwnerByIndex(address,uint256)": {
        "details": "Returns a token ID owned by `owner` at a given `index` of its token list. Use along with {balanceOf} to enumerate all of ``owner``'s tokens."
      }
    },
    "version": 1
  },
  "userdoc": {
    "kind": "user",
    "methods": {},
    "version": 1
  }
}