{
  "contractName": "KryptoBirdz",
  "abi": [
    {
      "inputs": [],
      "stateMutability": "nonpayable",
      "type": "constructor"
    },
    {
      "anonymous": false,
      "inputs": [
        {
          "indexed": true,
          "internalType": "address",
          "name": "owner",
          "type": "address"
        },
        {
          "indexed": true,
          "internalType": "address",
          "name": "approved",
          "type": "address"
        },
        {
          "indexed": true,
          "internalType": "uint256",
          "name": "tokenId",
          "type": "uint256"
        }
      ],
      "name": "Approval",
      "type": "event"
    },
    {
      "anonymous": false,
      "inputs": [
        {
          "indexed": true,
          "internalType": "address",
          "name": "owner",
          "type": "address"
        },
        {
          "indexed": true,
          "internalType": "address",
          "name": "operator",
          "type": "address"
        },
        {
          "indexed": false,
          "internalType": "bool",
          "name": "approved",
          "type": "bool"
        }
      ],
      "name": "ApprovalForAll",
      "type": "event"
    },
    {
      "anonymous": false,
      "inputs": [
        {
          "indexed": true,
          "internalType": "address",
          "name": "from",
          "type": "address"
        },
        {
          "indexed": true,
          "internalType": "address",
          "name": "to",
          "type": "address"
        },
        {
          "indexed": true,
          "internalType": "uint256",
          "name": "tokenId",
          "type": "uint256"
        }
      ],
      "name": "Transfer",
      "type": "event"
    },
    {
      "inputs": [
        {
          "internalType": "address",
          "name": "owner",
          "type": "address"
        }
      ],
      "name": "balanceOf",
      "outputs": [
        {
          "internalType": "uint256",
          "name": "",
          "type": "uint256"
        }
      ],
      "stateMutability": "view",
      "type": "function",
      "constant": true
    },
    {
      "inputs": [
        {
          "internalType": "uint256",
          "name": "",
          "type": "uint256"
        }
      ],
      "name": "kryptoBirdz",
      "outputs": [
        {
          "internalType": "string",
          "name": "",
          "type": "string"
        }
      ],
      "stateMutability": "view",
      "type": "function",
      "constant": true
    },
    {
      "inputs": [],
      "name": "name",
      "outputs": [
        {
          "internalType": "string",
          "name": "",
          "type": "string"
        }
      ],
      "stateMutability": "view",
      "type": "function",
      "constant": true
    },
    {
      "inputs": [
        {
          "internalType": "uint256",
          "name": "tokenId",
          "type": "uint256"
        }
      ],
      "name": "ownerOf",
      "outputs": [
        {
          "internalType": "address",
          "name": "",
          "type": "address"
        }
      ],
      "stateMutability": "view",
      "type": "function",
      "constant": true
    },
    {
      "inputs": [],
      "name": "symbol",
      "outputs": [
        {
          "internalType": "string",
          "name": "",
          "type": "string"
        }
      ],
      "stateMutability": "view",
      "type": "function",
      "constant": true
    },
    {
      "inputs": [
        {
          "internalType": "uint256",
          "name": "index",
          "type": "uint256"
        }
      ],
      "name": "tokenByIndex",
      "outputs": [
        {
          "internalType": "uint256",
          "name": "",
          "type": "uint256"
        }
      ],
      "stateMutability": "view",
      "type": "function",
      "constant": true
    },
    {
      "inputs": [
        {
          "internalType": "address",
          "name": "owner",
          "type": "address"
        },
        {
          "internalType": "uint256",
          "name": "index",
          "type": "uint256"
        }
      ],
      "name": "tokenOfOwnerByIndex",
      "outputs": [
        {
          "internalType": "uint256",
          "name": "",
          "type": "uint256"
        }
      ],
      "stateMutability": "view",
      "type": "function",
      "constant": true
    },
    {
      "inputs": [],
      "name": "totalSupply",
      "outputs": [
        {
          "internalType": "uint256",
          "name": "",
          "type": "uint256"
        }
      ],
      "stateMutability": "view",
      "type": "function",
      "constant": true
    },
    {
      "inputs": [
        {
          "internalType": "address",
          "name": "from",
          "type": "address"
        },
        {
          "internalType": "address",
          "name": "to",
          "type": "address"
        },
        {
          "internalType": "uint256",
          "name": "tokenId",
          "type": "uint256"
        }
      ],
      "name": "transferFrom",
      "outputs": [],
      "stateMutability": "payable",
      "type": "function",
      "payable": true
    },
    {
      "inputs": [
        {
          "internalType": "string",
          "name": "_kryptoBird",
          "type": "string"
        }
      ],
      "name": "mint",
      "outputs": [],
      "stateMutability": "nonpayable",
      "type": "function"
    }
  ],
  "bytecode": "0x60806040523480156200001157600080fd5b506040518060400160405280600b81526020017f4b727970746f426972647a0000000000000000000000000000000000000000008152506040518060400160405280600381526020017f4b425a00000000000000000000000000000000000000000000000000000000008152508181816000908051906020019062000098929190620000bc565b508060019080519060200190620000b1929190620000bc565b5050505050620001d0565b828054620000ca906200019b565b90600052602060002090601f016020900481019282620000ee57600085556200013a565b82601f106200010957805160ff19168380011785556200013a565b828001600101855582156200013a579182015b82811115620001395782518255916020019190600101906200011c565b5b5090506200014991906200014d565b5090565b5b80821115620001685760008160009055506001016200014e565b5090565b7f4e487b7100000000000000000000000000000000000000000000000000000000600052602260045260246000fd5b60006002820490506001821680620001b457607f821691505b602082108103620001ca57620001c96200016c565b5b50919050565b611adf80620001e06000396000f3fe6080604052600436106100915760003560e01c80636352211e116100595780636352211e1461018257806370a08231146101bf57806393ab6e56146101fc57806395d89b4114610239578063d85d3d271461026457610091565b806306fdde031461009657806318160ddd146100c157806323b872dd146100ec5780632f745c59146101085780634f6ccce714610145575b600080fd5b3480156100a257600080fd5b506100ab61028d565b6040516100b89190610fd7565b60405180910390f35b3480156100cd57600080fd5b506100d661031f565b6040516100e39190611012565b60405180910390f35b610106600480360381019061010191906110cb565b61032c565b005b34801561011457600080fd5b5061012f600480360381019061012a919061111e565b610628565b60405161013c9190611012565b60405180910390f35b34801561015157600080fd5b5061016c6004803603810190610167919061115e565b6106d8565b6040516101799190611012565b60405180910390f35b34801561018e57600080fd5b506101a960048036038101906101a4919061115e565b61073c565b6040516101b6919061119a565b60405180910390f35b3480156101cb57600080fd5b506101e660048036038101906101e191906111b5565b610836565b6040516101f39190611012565b60405180910390f35b34801561020857600080fd5b50610223600480360381019061021e919061115e565b6108ed565b6040516102309190610fd7565b60405180910390f35b34801561024557600080fd5b5061024e610999565b60405161025b9190610fd7565b60405180910390f35b34801561027057600080fd5b5061028b60048036038101906102869190611317565b610a2b565b005b60606000805461029c9061138f565b80601f01602080910402602001604051908101604052809291908181526020018280546102c89061138f565b80156103155780601f106102ea57610100808354040283529160200191610315565b820191906000526020600020905b8154815290600101906020018083116102f857829003601f168201915b5050505050905090565b6000600480549050905090565b600073ffffffffffffffffffffffffffffffffffffffff168373ffffffffffffffffffffffffffffffffffffffff160361039b576040517f08c379a000000000000000000000000000000000000000000000000000000000815260040161039290611432565b60405180910390fd5b600073ffffffffffffffffffffffffffffffffffffffff168273ffffffffffffffffffffffffffffffffffffffff160361040a576040517f08c379a0000000000000000000000000000000000000000000000000000000008152600401610401906114c4565b60405180910390fd5b61041381610b2e565b610452576040517f08c379a000000000000000000000000000000000000000000000000000000000815260040161044990611530565b60405180910390fd5b8273ffffffffffffffffffffffffffffffffffffffff166104728261073c565b73ffffffffffffffffffffffffffffffffffffffff16146104c8576040517f08c379a00000000000000000000000000000000000000000000000000000000081526004016104bf906115c2565b60405180910390fd5b6001600360008573ffffffffffffffffffffffffffffffffffffffff1673ffffffffffffffffffffffffffffffffffffffff16815260200190815260200160002060008282546105189190611611565b92505081905550816002600083815260200190815260200160002060006101000a81548173ffffffffffffffffffffffffffffffffffffffff021916908373ffffffffffffffffffffffffffffffffffffffff1602179055506001600360008473ffffffffffffffffffffffffffffffffffffffff1673ffffffffffffffffffffffffffffffffffffffff16815260200190815260200160002060008282546105c19190611645565b92505081905550808273ffffffffffffffffffffffffffffffffffffffff168473ffffffffffffffffffffffffffffffffffffffff167fddf252ad1be2c89b69c2b068fc378daa952ba7f163c4a11628f55a4df523b3ef60405160405180910390a4505050565b600061063383610836565b8210610674576040517f08c379a000000000000000000000000000000000000000000000000000000000815260040161066b9061170d565b60405180910390fd5b600660008473ffffffffffffffffffffffffffffffffffffffff1673ffffffffffffffffffffffffffffffffffffffff16815260200190815260200160002082815481106106c5576106c461172d565b5b9060005260206000200154905092915050565b60006004805490508210610721576040517f08c379a0000000000000000000000000000000000000000000000000000000008152600401610718906117ce565b60405180910390fd5b60056000838152602001908152602001600020549050919050565b600061074782610b2e565b610786576040517f08c379a000000000000000000000000000000000000000000000000000000000815260040161077d90611530565b60405180910390fd5b60006002600084815260200190815260200160002060009054906101000a900473ffffffffffffffffffffffffffffffffffffffff169050600073ffffffffffffffffffffffffffffffffffffffff168173ffffffffffffffffffffffffffffffffffffffff160361082d576040517f08c379a00000000000000000000000000000000000000000000000000000000081526004016108249061183a565b60405180910390fd5b80915050919050565b60008073ffffffffffffffffffffffffffffffffffffffff168273ffffffffffffffffffffffffffffffffffffffff16036108a6576040517f08c379a000000000000000000000000000000000000000000000000000000000815260040161089d906118a6565b60405180910390fd5b600360008373ffffffffffffffffffffffffffffffffffffffff1673ffffffffffffffffffffffffffffffffffffffff168152602001908152602001600020549050919050565b600881815481106108fd57600080fd5b9060005260206000200160009150905080546109189061138f565b80601f01602080910402602001604051908101604052809291908181526020018280546109449061138f565b80156109915780601f1061096657610100808354040283529160200191610991565b820191906000526020600020905b81548152906001019060200180831161097457829003601f168201915b505050505081565b6060600180546109a89061138f565b80601f01602080910402602001604051908101604052809291908181526020018280546109d49061138f565b8015610a215780601f106109f657610100808354040283529160200191610a21565b820191906000526020600020905b815481529060010190602001808311610a0457829003601f168201915b5050505050905090565b600981604051610a3b9190611902565b908152602001604051809103902060009054906101000a900460ff1615610a97576040517f08c379a0000000000000000000000000000000000000000000000000000000008152600401610a8e9061198b565b60405180910390fd5b600881908060018154018082558091505060019003906000526020600020016000909190919091509080519060200190610ad2929190610e9b565b5060006001600880549050610ae79190611611565b9050610af33382610ba0565b6001600983604051610b059190611902565b908152602001604051809103902060006101000a81548160ff0219169083151502179055505050565b6000806002600084815260200190815260200160002060009054906101000a900473ffffffffffffffffffffffffffffffffffffffff169050600073ffffffffffffffffffffffffffffffffffffffff168173ffffffffffffffffffffffffffffffffffffffff161415915050919050565b610baa8282610bc1565b610bb381610d82565b610bbd8282610dd7565b5050565b600073ffffffffffffffffffffffffffffffffffffffff168273ffffffffffffffffffffffffffffffffffffffff1603610c30576040517f08c379a0000000000000000000000000000000000000000000000000000000008152600401610c27906119f7565b60405180910390fd5b610c3981610b2e565b15610c79576040517f08c379a0000000000000000000000000000000000000000000000000000000008152600401610c7090611a89565b60405180910390fd5b816002600083815260200190815260200160002060006101000a81548173ffffffffffffffffffffffffffffffffffffffff021916908373ffffffffffffffffffffffffffffffffffffffff1602179055506001600360008473ffffffffffffffffffffffffffffffffffffffff1673ffffffffffffffffffffffffffffffffffffffff1681526020019081526020016000206000828254610d1b9190611645565b92505081905550808273ffffffffffffffffffffffffffffffffffffffff16600073ffffffffffffffffffffffffffffffffffffffff167fddf252ad1be2c89b69c2b068fc378daa952ba7f163c4a11628f55a4df523b3ef60405160405180910390a45050565b60048190806001815401808255809150506001900390600052602060002001600090919091909150556001600480549050610dbd9190611611565b600560008381526020019081526020016000208190555050565b600660008373ffffffffffffffffffffffffffffffffffffffff1673ffffffffffffffffffffffffffffffffffffffff168152602001908152602001600020819080600181540180825580915050600190039060005260206000200160009091909190915055600660008373ffffffffffffffffffffffffffffffffffffffff1673ffffffffffffffffffffffffffffffffffffffff1681526020019081526020016000208054905060076000838152602001908152602001600020819055505050565b828054610ea79061138f565b90600052602060002090601f016020900481019282610ec95760008555610f10565b82601f10610ee257805160ff1916838001178555610f10565b82800160010185558215610f10579182015b82811115610f0f578251825591602001919060010190610ef4565b5b509050610f1d9190610f21565b5090565b5b80821115610f3a576000816000905550600101610f22565b5090565b600081519050919050565b600082825260208201905092915050565b60005b83811015610f78578082015181840152602081019050610f5d565b83811115610f87576000848401525b50505050565b6000601f19601f8301169050919050565b6000610fa982610f3e565b610fb38185610f49565b9350610fc3818560208601610f5a565b610fcc81610f8d565b840191505092915050565b60006020820190508181036000830152610ff18184610f9e565b905092915050565b6000819050919050565b61100c81610ff9565b82525050565b60006020820190506110276000830184611003565b92915050565b6000604051905090565b600080fd5b600080fd5b600073ffffffffffffffffffffffffffffffffffffffff82169050919050565b600061106c82611041565b9050919050565b61107c81611061565b811461108757600080fd5b50565b60008135905061109981611073565b92915050565b6110a881610ff9565b81146110b357600080fd5b50565b6000813590506110c58161109f565b92915050565b6000806000606084860312156110e4576110e3611037565b5b60006110f28682870161108a565b93505060206111038682870161108a565b9250506040611114868287016110b6565b9150509250925092565b6000806040838503121561113557611134611037565b5b60006111438582860161108a565b9250506020611154858286016110b6565b9150509250929050565b60006020828403121561117457611173611037565b5b6000611182848285016110b6565b91505092915050565b61119481611061565b82525050565b60006020820190506111af600083018461118b565b92915050565b6000602082840312156111cb576111ca611037565b5b60006111d98482850161108a565b91505092915050565b600080fd5b600080fd5b7f4e487b7100000000000000000000000000000000000000000000000000000000600052604160045260246000fd5b61122482610f8d565b810181811067ffffffffffffffff82111715611243576112426111ec565b5b80604052505050565b600061125661102d565b9050611262828261121b565b919050565b600067ffffffffffffffff821115611282576112816111ec565b5b61128b82610f8d565b9050602081019050919050565b82818337600083830152505050565b60006112ba6112b584611267565b61124c565b9050828152602081018484840111156112d6576112d56111e7565b5b6112e1848285611298565b509392505050565b600082601f8301126112fe576112fd6111e2565b5b813561130e8482602086016112a7565b91505092915050565b60006020828403121561132d5761132c611037565b5b600082013567ffffffffffffffff81111561134b5761134a61103c565b5b611357848285016112e9565b91505092915050565b7f4e487b7100000000000000000000000000000000000000000000000000000000600052602260045260246000fd5b600060028204905060018216806113a757607f821691505b6020821081036113ba576113b9611360565b5b50919050565b7f4552433732313a7472616e7366657246726f6d3a3a66726f6d20696e76616c6960008201527f645f616464726573730000000000000000000000000000000000000000000000602082015250565b600061141c602983610f49565b9150611427826113c0565b604082019050919050565b6000602082019050818103600083015261144b8161140f565b9050919050565b7f4552433732313a7472616e7366657246726f6d3a3a746f20696e76616c69645f60008201527f6164647265737300000000000000000000000000000000000000000000000000602082015250565b60006114ae602783610f49565b91506114b982611452565b604082019050919050565b600060208201905081810360008301526114dd816114a1565b9050919050565b7f4552433732313a6f776e65724f6620696e7661696c64746f6b656e4964000000600082015250565b600061151a601d83610f49565b9150611525826114e4565b602082019050919050565b600060208201905081810360008301526115498161150d565b9050919050565b7f4552433732313a7472616e7366657246726f6d20796f75725f6e6f745f6f776e60008201527f6572000000000000000000000000000000000000000000000000000000000000602082015250565b60006115ac602283610f49565b91506115b782611550565b604082019050919050565b600060208201905081810360008301526115db8161159f565b9050919050565b7f4e487b7100000000000000000000000000000000000000000000000000000000600052601160045260246000fd5b600061161c82610ff9565b915061162783610ff9565b92508282101561163a576116396115e2565b5b828203905092915050565b600061165082610ff9565b915061165b83610ff9565b9250827fffffffffffffffffffffffffffffffffffffffffffffffffffffffffffffffff038211156116905761168f6115e2565b5b828201905092915050565b7f455243373231456e756d657261626c653a746f6b656e4f664f776e657242794960008201527f6e64657820696e76616c69645f696e6465780000000000000000000000000000602082015250565b60006116f7603283610f49565b91506117028261169b565b604082019050919050565b60006020820190508181036000830152611726816116ea565b9050919050565b7f4e487b7100000000000000000000000000000000000000000000000000000000600052603260045260246000fd5b7f455243373231456e756d657261626c653a746f6b656e4279496e64657820696e60008201527f76616c69645f696e646578000000000000000000000000000000000000000000602082015250565b60006117b8602b83610f49565b91506117c38261175c565b604082019050919050565b600060208201905081810360008301526117e7816117ab565b9050919050565b7f4552433732313a6f776e65724f6620696e76616c69645f616464726573730000600082015250565b6000611824601e83610f49565b915061182f826117ee565b602082019050919050565b6000602082019050818103600083015261185381611817565b9050919050565b7f4552433732313a62616c616e63654f6620696e76616c69645f61646472657373600082015250565b6000611890602083610f49565b915061189b8261185a565b602082019050919050565b600060208201905081810360008301526118bf81611883565b9050919050565b600081905092915050565b60006118dc82610f3e565b6118e681856118c6565b93506118f6818560208601610f5a565b80840191505092915050565b600061190e82846118d1565b915081905092915050565b7f4b727970746f426972647a3a206b727970746f5f626972645f616c726561647960008201527f5f65786973740000000000000000000000000000000000000000000000000000602082015250565b6000611975602683610f49565b915061198082611919565b604082019050919050565b600060208201905081810360008301526119a481611968565b9050919050565b7f4552433732313a5f6d696e7420696e76616c69645f6164647265737300000000600082015250565b60006119e1601c83610f49565b91506119ec826119ab565b602082019050919050565b60006020820190508181036000830152611a10816119d4565b9050919050565b7f4552433732313a5f6d696e7420746f6b656e49645f616c72656164795f6d696e60008201527f7465640000000000000000000000000000000000000000000000000000000000602082015250565b6000611a73602383610f49565b9150611a7e82611a17565b604082019050919050565b60006020820190508181036000830152611aa281611a66565b905091905056fea26469706673582212201ad4cb183bdbaf342bada6ba65cc70a776f6a7052b7360b6d63c59156df8665464736f6c634300080d0033",
  "immutableReferences": {},
  "source": "// SPDX-License-Identifier: MIT\npragma solidity ^0.8.0;\n\nimport './ERC721Connector.sol';\n\ncontract KryptoBirdz is ERC721Connector {\n    \n    string[] public kryptoBirdz;\n    mapping(string => bool) _kryptoBirdzExist;\n    \n    constructor() ERC721Connector('KryptoBirdz', 'KBZ') {\n    }\n\n    function mint(string memory _kryptoBird) public {\n\n        require(!_kryptoBirdzExist[_kryptoBird], 'KryptoBirdz: krypto_bird_already_exist');\n\n        // uint256 _id = kryptoBirdz.push(_kryptoBird);\n        kryptoBirdz.push(_kryptoBird);\n        uint256 _id = kryptoBirdz.length -1;\n        _mint(msg.sender, _id);\n        _kryptoBirdzExist[_kryptoBird] = true;\n    }\n}",
  "sourcePath": "/Volumes/Code/simple-nft-marketplace/src/contracts/KryptoBirdz.sol",
  "compiler": {
    "name": "solc",
    "version": "0.8.13+commit.abaa5c0e.Emscripten.clang"
  },
  "schemaVersion": "3.4.7",
  "updatedAt": "2022-04-28T17:28:44.558Z",
  "networkType": "ethereum",
  "devdoc": {
    "kind": "dev",
    "methods": {
      "tokenByIndex(uint256)": {
        "details": "Returns a token ID at a given `index` of all the tokens stored by the contract. Use along with {totalSupply} to enumerate all tokens."
      },
      "tokenOfOwnerByIndex(address,uint256)": {
        "details": "Returns a token ID owned by `owner` at a given `index` of its token list. Use along with {balanceOf} to enumerate all of ``owner``'s tokens."
      }
    },
    "version": 1
  },
  "userdoc": {
    "kind": "user",
    "methods": {},
    "version": 1
  }
}