{
  "contractName": "ERC721Enumerable",
  "abi": [
    {
      "anonymous": false,
      "inputs": [
        {
          "indexed": true,
          "internalType": "address",
          "name": "owner",
          "type": "address"
        },
        {
          "indexed": true,
          "internalType": "address",
          "name": "approved",
          "type": "address"
        },
        {
          "indexed": true,
          "internalType": "uint256",
          "name": "tokenId",
          "type": "uint256"
        }
      ],
      "name": "Approval",
      "type": "event"
    },
    {
      "anonymous": false,
      "inputs": [
        {
          "indexed": true,
          "internalType": "address",
          "name": "owner",
          "type": "address"
        },
        {
          "indexed": true,
          "internalType": "address",
          "name": "operator",
          "type": "address"
        },
        {
          "indexed": false,
          "internalType": "bool",
          "name": "approved",
          "type": "bool"
        }
      ],
      "name": "ApprovalForAll",
      "type": "event"
    },
    {
      "anonymous": false,
      "inputs": [
        {
          "indexed": true,
          "internalType": "address",
          "name": "from",
          "type": "address"
        },
        {
          "indexed": true,
          "internalType": "address",
          "name": "to",
          "type": "address"
        },
        {
          "indexed": true,
          "internalType": "uint256",
          "name": "tokenId",
          "type": "uint256"
        }
      ],
      "name": "Transfer",
      "type": "event"
    },
    {
      "inputs": [
        {
          "internalType": "address",
          "name": "to",
          "type": "address"
        },
        {
          "internalType": "uint256",
          "name": "tokenId",
          "type": "uint256"
        }
      ],
      "name": "approve",
      "outputs": [],
      "stateMutability": "nonpayable",
      "type": "function"
    },
    {
      "inputs": [
        {
          "internalType": "address",
          "name": "owner",
          "type": "address"
        }
      ],
      "name": "balanceOf",
      "outputs": [
        {
          "internalType": "uint256",
          "name": "",
          "type": "uint256"
        }
      ],
      "stateMutability": "view",
      "type": "function"
    },
    {
      "inputs": [
        {
          "internalType": "uint256",
          "name": "tokenId",
          "type": "uint256"
        }
      ],
      "name": "getApproved",
      "outputs": [
        {
          "internalType": "address",
          "name": "",
          "type": "address"
        }
      ],
      "stateMutability": "view",
      "type": "function"
    },
    {
      "inputs": [
        {
          "internalType": "address",
          "name": "owner",
          "type": "address"
        },
        {
          "internalType": "address",
          "name": "operator",
          "type": "address"
        }
      ],
      "name": "isApprovedForAll",
      "outputs": [
        {
          "internalType": "bool",
          "name": "",
          "type": "bool"
        }
      ],
      "stateMutability": "view",
      "type": "function"
    },
    {
      "inputs": [
        {
          "internalType": "uint256",
          "name": "tokenId",
          "type": "uint256"
        }
      ],
      "name": "ownerOf",
      "outputs": [
        {
          "internalType": "address",
          "name": "",
          "type": "address"
        }
      ],
      "stateMutability": "view",
      "type": "function"
    },
    {
      "inputs": [
        {
          "internalType": "address",
          "name": "operator",
          "type": "address"
        },
        {
          "internalType": "bool",
          "name": "approved",
          "type": "bool"
        }
      ],
      "name": "setApprovalForAll",
      "outputs": [],
      "stateMutability": "nonpayable",
      "type": "function"
    },
    {
      "inputs": [
        {
          "internalType": "address",
          "name": "from",
          "type": "address"
        },
        {
          "internalType": "address",
          "name": "to",
          "type": "address"
        },
        {
          "internalType": "uint256",
          "name": "tokenId",
          "type": "uint256"
        }
      ],
      "name": "transferFrom",
      "outputs": [],
      "stateMutability": "payable",
      "type": "function"
    },
    {
      "inputs": [],
      "name": "totalSupply",
      "outputs": [
        {
          "internalType": "uint256",
          "name": "",
          "type": "uint256"
        }
      ],
      "stateMutability": "view",
      "type": "function"
    },
    {
      "inputs": [
        {
          "internalType": "uint256",
          "name": "index",
          "type": "uint256"
        }
      ],
      "name": "tokenByIndex",
      "outputs": [
        {
          "internalType": "uint256",
          "name": "",
          "type": "uint256"
        }
      ],
      "stateMutability": "view",
      "type": "function"
    },
    {
      "inputs": [
        {
          "internalType": "address",
          "name": "owner",
          "type": "address"
        },
        {
          "internalType": "uint256",
          "name": "index",
          "type": "uint256"
        }
      ],
      "name": "tokenOfOwnerByIndex",
      "outputs": [
        {
          "internalType": "uint256",
          "name": "",
          "type": "uint256"
        }
      ],
      "stateMutability": "view",
      "type": "function"
    }
  ],
  "bytecode": "0x608060405234801561001057600080fd5b506117d3806100206000396000f3fe6080604052600436106100915760003560e01c80634f6ccce7116100595780634f6ccce7146101805780636352211e146101bd57806370a08231146101fa578063a22cb46514610237578063e985e9c51461026057610091565b8063081812fc14610096578063095ea7b3146100d357806318160ddd146100fc57806323b872dd146101275780632f745c5914610143575b600080fd5b3480156100a257600080fd5b506100bd60048036038101906100b89190610de3565b61029d565b6040516100ca9190610e51565b60405180910390f35b3480156100df57600080fd5b506100fa60048036038101906100f59190610e98565b610322565b005b34801561010857600080fd5b506101116104bd565b60405161011e9190610ee7565b60405180910390f35b610141600480360381019061013c9190610f02565b6104ca565b005b34801561014f57600080fd5b5061016a60048036038101906101659190610e98565b610796565b6040516101779190610ee7565b60405180910390f35b34801561018c57600080fd5b506101a760048036038101906101a29190610de3565b610846565b6040516101b49190610ee7565b60405180910390f35b3480156101c957600080fd5b506101e460048036038101906101df9190610de3565b6108aa565b6040516101f19190610e51565b60405180910390f35b34801561020657600080fd5b50610221600480360381019061021c9190610f55565b6109a3565b60405161022e9190610ee7565b60405180910390f35b34801561024357600080fd5b5061025e60048036038101906102599190610fba565b610a5a565b005b34801561026c57600080fd5b5061028760048036038101906102829190610ffa565b610bc5565b6040516102949190611049565b60405180910390f35b60006102a882610c59565b6102e7576040517f08c379a00000000000000000000000000000000000000000000000000000000081526004016102de906110e7565b60405180910390fd5b6002600083815260200190815260200160002060009054906101000a900473ffffffffffffffffffffffffffffffffffffffff169050919050565b600061032d826108aa565b90508073ffffffffffffffffffffffffffffffffffffffff168373ffffffffffffffffffffffffffffffffffffffff160361039d576040517f08c379a000000000000000000000000000000000000000000000000000000000815260040161039490611179565b60405180910390fd5b8073ffffffffffffffffffffffffffffffffffffffff163373ffffffffffffffffffffffffffffffffffffffff161461040b576040517f08c379a00000000000000000000000000000000000000000000000000000000081526004016104029061120b565b60405180910390fd5b826002600084815260200190815260200160002060006101000a81548173ffffffffffffffffffffffffffffffffffffffff021916908373ffffffffffffffffffffffffffffffffffffffff160217905550818373ffffffffffffffffffffffffffffffffffffffff168273ffffffffffffffffffffffffffffffffffffffff167f8c5be1e5ebec7d5bd14f71427d1e84f3dd0314c0f7b2291e5b200ac8c7c3b92560405160405180910390a4505050565b6000600480549050905090565b600073ffffffffffffffffffffffffffffffffffffffff168373ffffffffffffffffffffffffffffffffffffffff1603610539576040517f08c379a00000000000000000000000000000000000000000000000000000000081526004016105309061129d565b60405180910390fd5b600073ffffffffffffffffffffffffffffffffffffffff168273ffffffffffffffffffffffffffffffffffffffff16036105a8576040517f08c379a000000000000000000000000000000000000000000000000000000000815260040161059f9061132f565b60405180910390fd5b6105b181610c59565b6105f0576040517f08c379a00000000000000000000000000000000000000000000000000000000081526004016105e79061139b565b60405180910390fd5b6105fa3382610cca565b610639576040517f08c379a00000000000000000000000000000000000000000000000000000000081526004016106309061142d565b60405180910390fd5b60018060008573ffffffffffffffffffffffffffffffffffffffff1673ffffffffffffffffffffffffffffffffffffffff1681526020019081526020016000206000828254610688919061147c565b925050819055508160008083815260200190815260200160002060006101000a81548173ffffffffffffffffffffffffffffffffffffffff021916908373ffffffffffffffffffffffffffffffffffffffff16021790555060018060008473ffffffffffffffffffffffffffffffffffffffff1673ffffffffffffffffffffffffffffffffffffffff168152602001908152602001600020600082825461072f91906114b0565b92505081905550808273ffffffffffffffffffffffffffffffffffffffff168473ffffffffffffffffffffffffffffffffffffffff167fddf252ad1be2c89b69c2b068fc378daa952ba7f163c4a11628f55a4df523b3ef60405160405180910390a4505050565b60006107a1836109a3565b82106107e2576040517f08c379a00000000000000000000000000000000000000000000000000000000081526004016107d990611578565b60405180910390fd5b600660008473ffffffffffffffffffffffffffffffffffffffff1673ffffffffffffffffffffffffffffffffffffffff168152602001908152602001600020828154811061083357610832611598565b5b9060005260206000200154905092915050565b6000600480549050821061088f576040517f08c379a000000000000000000000000000000000000000000000000000000000815260040161088690611639565b60405180910390fd5b60056000838152602001908152602001600020549050919050565b60006108b582610c59565b6108f4576040517f08c379a00000000000000000000000000000000000000000000000000000000081526004016108eb9061139b565b60405180910390fd5b600080600084815260200190815260200160002060009054906101000a900473ffffffffffffffffffffffffffffffffffffffff169050600073ffffffffffffffffffffffffffffffffffffffff168173ffffffffffffffffffffffffffffffffffffffff160361099a576040517f08c379a0000000000000000000000000000000000000000000000000000000008152600401610991906116a5565b60405180910390fd5b80915050919050565b60008073ffffffffffffffffffffffffffffffffffffffff168273ffffffffffffffffffffffffffffffffffffffff1603610a13576040517f08c379a0000000000000000000000000000000000000000000000000000000008152600401610a0a90611711565b60405180910390fd5b600160008373ffffffffffffffffffffffffffffffffffffffff1673ffffffffffffffffffffffffffffffffffffffff168152602001908152602001600020549050919050565b8173ffffffffffffffffffffffffffffffffffffffff163373ffffffffffffffffffffffffffffffffffffffff1603610ac8576040517f08c379a0000000000000000000000000000000000000000000000000000000008152600401610abf9061177d565b60405180910390fd5b80600360003373ffffffffffffffffffffffffffffffffffffffff1673ffffffffffffffffffffffffffffffffffffffff16815260200190815260200160002060008473ffffffffffffffffffffffffffffffffffffffff1673ffffffffffffffffffffffffffffffffffffffff16815260200190815260200160002060006101000a81548160ff0219169083151502179055508173ffffffffffffffffffffffffffffffffffffffff163373ffffffffffffffffffffffffffffffffffffffff167f17307eab39ab6107e8899845ad3d59bd9653f200f220920489ca2b5937696c3183604051610bb99190611049565b60405180910390a35050565b6000600360008473ffffffffffffffffffffffffffffffffffffffff1673ffffffffffffffffffffffffffffffffffffffff16815260200190815260200160002060008373ffffffffffffffffffffffffffffffffffffffff1673ffffffffffffffffffffffffffffffffffffffff16815260200190815260200160002060009054906101000a900460ff16905092915050565b60008060008084815260200190815260200160002060009054906101000a900473ffffffffffffffffffffffffffffffffffffffff169050600073ffffffffffffffffffffffffffffffffffffffff168173ffffffffffffffffffffffffffffffffffffffff161415915050919050565b6000610cd582610c59565b610d14576040517f08c379a0000000000000000000000000000000000000000000000000000000008152600401610d0b9061139b565b60405180910390fd5b6000610d1f836108aa565b90508073ffffffffffffffffffffffffffffffffffffffff168473ffffffffffffffffffffffffffffffffffffffff161480610d8e57508373ffffffffffffffffffffffffffffffffffffffff16610d768461029d565b73ffffffffffffffffffffffffffffffffffffffff16145b80610d9f5750610d9e8185610bc5565b5b91505092915050565b600080fd5b6000819050919050565b610dc081610dad565b8114610dcb57600080fd5b50565b600081359050610ddd81610db7565b92915050565b600060208284031215610df957610df8610da8565b5b6000610e0784828501610dce565b91505092915050565b600073ffffffffffffffffffffffffffffffffffffffff82169050919050565b6000610e3b82610e10565b9050919050565b610e4b81610e30565b82525050565b6000602082019050610e666000830184610e42565b92915050565b610e7581610e30565b8114610e8057600080fd5b50565b600081359050610e9281610e6c565b92915050565b60008060408385031215610eaf57610eae610da8565b5b6000610ebd85828601610e83565b9250506020610ece85828601610dce565b9150509250929050565b610ee181610dad565b82525050565b6000602082019050610efc6000830184610ed8565b92915050565b600080600060608486031215610f1b57610f1a610da8565b5b6000610f2986828701610e83565b9350506020610f3a86828701610e83565b9250506040610f4b86828701610dce565b9150509250925092565b600060208284031215610f6b57610f6a610da8565b5b6000610f7984828501610e83565b91505092915050565b60008115159050919050565b610f9781610f82565b8114610fa257600080fd5b50565b600081359050610fb481610f8e565b92915050565b60008060408385031215610fd157610fd0610da8565b5b6000610fdf85828601610e83565b9250506020610ff085828601610fa5565b9150509250929050565b6000806040838503121561101157611010610da8565b5b600061101f85828601610e83565b925050602061103085828601610e83565b9150509250929050565b61104381610f82565b82525050565b600060208201905061105e600083018461103a565b92915050565b600082825260208201905092915050565b7f4552433732313a20617070726f76656420717565727920666f72206e6f6e657860008201527f697374656e7420746f6b656e0000000000000000000000000000000000000000602082015250565b60006110d1602c83611064565b91506110dc82611075565b604082019050919050565b60006020820190508181036000830152611100816110c4565b9050919050565b7f4552433732313a617070726f766520617070726f76616c5f746f5f637572726560008201527f6e745f6f776e6572000000000000000000000000000000000000000000000000602082015250565b6000611163602883611064565b915061116e82611107565b604082019050919050565b6000602082019050818103600083015261119281611156565b9050919050565b7f4552433732313a617070726f76652073656e6465725f6e6f745f615f6f776e6560008201527f7200000000000000000000000000000000000000000000000000000000000000602082015250565b60006111f5602183611064565b915061120082611199565b604082019050919050565b60006020820190508181036000830152611224816111e8565b9050919050565b7f4552433732313a7472616e7366657246726f6d3a3a66726f6d20696e76616c6960008201527f645f616464726573730000000000000000000000000000000000000000000000602082015250565b6000611287602983611064565b91506112928261122b565b604082019050919050565b600060208201905081810360008301526112b68161127a565b9050919050565b7f4552433732313a7472616e7366657246726f6d3a3a746f20696e76616c69645f60008201527f6164647265737300000000000000000000000000000000000000000000000000602082015250565b6000611319602783611064565b9150611324826112bd565b604082019050919050565b600060208201905081810360008301526113488161130c565b9050919050565b7f4552433732313a6f776e65724f6620696e7661696c64746f6b656e4964000000600082015250565b6000611385601d83611064565b91506113908261134f565b602082019050919050565b600060208201905081810360008301526113b481611378565b9050919050565b7f4552433732313a207472616e736665722063616c6c6572206973206e6f74206f60008201527f776e6572206e6f7220617070726f766564000000000000000000000000000000602082015250565b6000611417603183611064565b9150611422826113bb565b604082019050919050565b600060208201905081810360008301526114468161140a565b9050919050565b7f4e487b7100000000000000000000000000000000000000000000000000000000600052601160045260246000fd5b600061148782610dad565b915061149283610dad565b9250828210156114a5576114a461144d565b5b828203905092915050565b60006114bb82610dad565b91506114c683610dad565b9250827fffffffffffffffffffffffffffffffffffffffffffffffffffffffffffffffff038211156114fb576114fa61144d565b5b828201905092915050565b7f455243373231456e756d657261626c653a746f6b656e4f664f776e657242794960008201527f6e64657820696e76616c69645f696e6465780000000000000000000000000000602082015250565b6000611562603283611064565b915061156d82611506565b604082019050919050565b6000602082019050818103600083015261159181611555565b9050919050565b7f4e487b7100000000000000000000000000000000000000000000000000000000600052603260045260246000fd5b7f455243373231456e756d657261626c653a746f6b656e4279496e64657820696e60008201527f76616c69645f696e646578000000000000000000000000000000000000000000602082015250565b6000611623602b83611064565b915061162e826115c7565b604082019050919050565b6000602082019050818103600083015261165281611616565b9050919050565b7f4552433732313a6f776e65724f6620696e76616c69645f616464726573730000600082015250565b600061168f601e83611064565b915061169a82611659565b602082019050919050565b600060208201905081810360008301526116be81611682565b9050919050565b7f4552433732313a62616c616e63654f6620696e76616c69645f61646472657373600082015250565b60006116fb602083611064565b9150611706826116c5565b602082019050919050565b6000602082019050818103600083015261172a816116ee565b9050919050565b7f4552433732313a20617070726f766520746f2063616c6c657200000000000000600082015250565b6000611767601983611064565b915061177282611731565b602082019050919050565b600060208201905081810360008301526117968161175a565b905091905056fea26469706673582212207bb8573ae8f178611d8406223efdbe1130df77dd6d7ccdc91f3f95c6de31626364736f6c634300080d0033",
  "immutableReferences": {},
  "source": "// SPDX-License-Identifier: MIT\npragma solidity ^0.8.0;\n\nimport './ERC721.sol';\n\ncontract ERC721Enumerable is ERC721 {\n\n    uint256[] private _allTokens;\n    // tokenIds => index position of the _allTokens\n    mapping(uint256 => uint256) private _allTokensIndex;\n    // owner => owned tokenIds array\n    mapping(address => uint256[]) private _ownedTokens;\n    // Token Ids => index position of the _ownedTokens list\n    mapping(uint256 => uint256) private _ownedTokensIndex;\n\n\n    function totalSupply() external view returns (uint256) {\n        return _allTokens.length;\n    }\n\n    /**\n     * @dev Returns a token ID at a given `index` of all the tokens stored by the contract.\n     * Use along with {totalSupply} to enumerate all tokens.\n     */\n    function tokenByIndex(uint256 index) external view returns (uint256) {\n        // require(index < totalSupply(), 'ERC721Enumerable:tokenByIndex invalid_index');\n        require(index < _allTokens.length, 'ERC721Enumerable:tokenByIndex invalid_index');\n\n        return _allTokensIndex[index];\n    }\n\n    /**\n     * @dev Returns a token ID owned by `owner` at a given `index` of its token list.\n     * Use along with {balanceOf} to enumerate all of ``owner``'s tokens.\n     */\n    function tokenOfOwnerByIndex(address owner, uint256 index) external view returns (uint256) {\n        require(index < balanceOf(owner), 'ERC721Enumerable:tokenOfOwnerByIndex invalid_index');\n        return _ownedTokens[owner][index];\n    }\n\n    function _mint(address to, uint256 _tokenId) internal override(ERC721) {\n        super._mint(to, _tokenId);\n        _addTokensToAllTokenEnumerable(_tokenId);\n        _addTokensToOwnerEnumerable(to, _tokenId);\n\n    }\n\n    function _addTokensToOwnerEnumerable(address _owner, uint256 _tokenId) private {\n        _ownedTokens[_owner].push(_tokenId);\n        _ownedTokensIndex[_tokenId] = _ownedTokens[_owner].length;\n    }\n\n    function _addTokensToAllTokenEnumerable(uint256 _tokenId) private {\n        _allTokens.push(_tokenId);\n        _allTokensIndex[_tokenId] = _allTokens.length - 1;\n    }\n\n}\n",
  "sourcePath": "/Volumes/Code/simple-nft-marketplace/src/contracts/contracts/ERC721Enumerable.sol",
  "compiler": {
    "name": "solc",
    "version": "0.8.13+commit.abaa5c0e.Emscripten.clang"
  },
  "schemaVersion": "3.4.7",
  "updatedAt": "2022-05-04T15:25:07.320Z",
  "devdoc": {
    "kind": "dev",
    "methods": {
      "tokenByIndex(uint256)": {
        "details": "Returns a token ID at a given `index` of all the tokens stored by the contract. Use along with {totalSupply} to enumerate all tokens."
      },
      "tokenOfOwnerByIndex(address,uint256)": {
        "details": "Returns a token ID owned by `owner` at a given `index` of its token list. Use along with {balanceOf} to enumerate all of ``owner``'s tokens."
      }
    },
    "version": 1
  },
  "userdoc": {
    "kind": "user",
    "methods": {},
    "version": 1
  }
}