{
  "contractName": "KryptoBirdz",
  "abi": [
    {
      "inputs": [],
      "stateMutability": "nonpayable",
      "type": "constructor"
    },
    {
      "anonymous": false,
      "inputs": [
        {
          "indexed": true,
          "internalType": "address",
          "name": "owner",
          "type": "address"
        },
        {
          "indexed": true,
          "internalType": "address",
          "name": "approved",
          "type": "address"
        },
        {
          "indexed": true,
          "internalType": "uint256",
          "name": "tokenId",
          "type": "uint256"
        }
      ],
      "name": "Approval",
      "type": "event"
    },
    {
      "anonymous": false,
      "inputs": [
        {
          "indexed": true,
          "internalType": "address",
          "name": "owner",
          "type": "address"
        },
        {
          "indexed": true,
          "internalType": "address",
          "name": "operator",
          "type": "address"
        },
        {
          "indexed": false,
          "internalType": "bool",
          "name": "approved",
          "type": "bool"
        }
      ],
      "name": "ApprovalForAll",
      "type": "event"
    },
    {
      "anonymous": false,
      "inputs": [
        {
          "indexed": true,
          "internalType": "address",
          "name": "from",
          "type": "address"
        },
        {
          "indexed": true,
          "internalType": "address",
          "name": "to",
          "type": "address"
        },
        {
          "indexed": true,
          "internalType": "uint256",
          "name": "tokenId",
          "type": "uint256"
        }
      ],
      "name": "Transfer",
      "type": "event"
    },
    {
      "inputs": [
        {
          "internalType": "address",
          "name": "to",
          "type": "address"
        },
        {
          "internalType": "uint256",
          "name": "tokenId",
          "type": "uint256"
        }
      ],
      "name": "approve",
      "outputs": [],
      "stateMutability": "nonpayable",
      "type": "function"
    },
    {
      "inputs": [
        {
          "internalType": "address",
          "name": "owner",
          "type": "address"
        }
      ],
      "name": "balanceOf",
      "outputs": [
        {
          "internalType": "uint256",
          "name": "",
          "type": "uint256"
        }
      ],
      "stateMutability": "view",
      "type": "function",
      "constant": true
    },
    {
      "inputs": [
        {
          "internalType": "uint256",
          "name": "tokenId",
          "type": "uint256"
        }
      ],
      "name": "getApproved",
      "outputs": [
        {
          "internalType": "address",
          "name": "",
          "type": "address"
        }
      ],
      "stateMutability": "view",
      "type": "function",
      "constant": true
    },
    {
      "inputs": [
        {
          "internalType": "address",
          "name": "owner",
          "type": "address"
        },
        {
          "internalType": "address",
          "name": "operator",
          "type": "address"
        }
      ],
      "name": "isApprovedForAll",
      "outputs": [
        {
          "internalType": "bool",
          "name": "",
          "type": "bool"
        }
      ],
      "stateMutability": "view",
      "type": "function",
      "constant": true
    },
    {
      "inputs": [
        {
          "internalType": "uint256",
          "name": "",
          "type": "uint256"
        }
      ],
      "name": "kryptoBirdz",
      "outputs": [
        {
          "internalType": "string",
          "name": "",
          "type": "string"
        }
      ],
      "stateMutability": "view",
      "type": "function",
      "constant": true
    },
    {
      "inputs": [],
      "name": "name",
      "outputs": [
        {
          "internalType": "string",
          "name": "",
          "type": "string"
        }
      ],
      "stateMutability": "view",
      "type": "function",
      "constant": true
    },
    {
      "inputs": [
        {
          "internalType": "uint256",
          "name": "tokenId",
          "type": "uint256"
        }
      ],
      "name": "ownerOf",
      "outputs": [
        {
          "internalType": "address",
          "name": "",
          "type": "address"
        }
      ],
      "stateMutability": "view",
      "type": "function",
      "constant": true
    },
    {
      "inputs": [
        {
          "internalType": "address",
          "name": "operator",
          "type": "address"
        },
        {
          "internalType": "bool",
          "name": "approved",
          "type": "bool"
        }
      ],
      "name": "setApprovalForAll",
      "outputs": [],
      "stateMutability": "nonpayable",
      "type": "function"
    },
    {
      "inputs": [],
      "name": "symbol",
      "outputs": [
        {
          "internalType": "string",
          "name": "",
          "type": "string"
        }
      ],
      "stateMutability": "view",
      "type": "function",
      "constant": true
    },
    {
      "inputs": [
        {
          "internalType": "uint256",
          "name": "index",
          "type": "uint256"
        }
      ],
      "name": "tokenByIndex",
      "outputs": [
        {
          "internalType": "uint256",
          "name": "",
          "type": "uint256"
        }
      ],
      "stateMutability": "view",
      "type": "function",
      "constant": true
    },
    {
      "inputs": [
        {
          "internalType": "address",
          "name": "owner",
          "type": "address"
        },
        {
          "internalType": "uint256",
          "name": "index",
          "type": "uint256"
        }
      ],
      "name": "tokenOfOwnerByIndex",
      "outputs": [
        {
          "internalType": "uint256",
          "name": "",
          "type": "uint256"
        }
      ],
      "stateMutability": "view",
      "type": "function",
      "constant": true
    },
    {
      "inputs": [],
      "name": "totalSupply",
      "outputs": [
        {
          "internalType": "uint256",
          "name": "",
          "type": "uint256"
        }
      ],
      "stateMutability": "view",
      "type": "function",
      "constant": true
    },
    {
      "inputs": [
        {
          "internalType": "address",
          "name": "from",
          "type": "address"
        },
        {
          "internalType": "address",
          "name": "to",
          "type": "address"
        },
        {
          "internalType": "uint256",
          "name": "tokenId",
          "type": "uint256"
        }
      ],
      "name": "transferFrom",
      "outputs": [],
      "stateMutability": "payable",
      "type": "function",
      "payable": true
    },
    {
      "inputs": [
        {
          "internalType": "string",
          "name": "_kryptoBird",
          "type": "string"
        }
      ],
      "name": "mint",
      "outputs": [],
      "stateMutability": "nonpayable",
      "type": "function"
    }
  ],
  "bytecode": "0x60806040523480156200001157600080fd5b506040518060400160405280600b81526020017f4b727970746f426972647a0000000000000000000000000000000000000000008152506040518060400160405280600381526020017f4b425a00000000000000000000000000000000000000000000000000000000008152508181816000908051906020019062000098929190620000bc565b508060019080519060200190620000b1929190620000bc565b5050505050620001d0565b828054620000ca906200019b565b90600052602060002090601f016020900481019282620000ee57600085556200013a565b82601f106200010957805160ff19168380011785556200013a565b828001600101855582156200013a579182015b82811115620001395782518255916020019190600101906200011c565b5b5090506200014991906200014d565b5090565b5b80821115620001685760008160009055506001016200014e565b5090565b7f4e487b7100000000000000000000000000000000000000000000000000000000600052602260045260246000fd5b60006002820490506001821680620001b457607f821691505b602082108103620001ca57620001c96200016c565b5b50919050565b6123cb80620001e06000396000f3fe6080604052600436106100dd5760003560e01c80636352211e1161007f57806395d89b411161005957806395d89b41146102eb578063a22cb46514610316578063d85d3d271461033f578063e985e9c514610368576100dd565b80636352211e1461023457806370a082311461027157806393ab6e56146102ae576100dd565b806318160ddd116100bb57806318160ddd1461017357806323b872dd1461019e5780632f745c59146101ba5780634f6ccce7146101f7576100dd565b806306fdde03146100e2578063081812fc1461010d578063095ea7b31461014a575b600080fd5b3480156100ee57600080fd5b506100f76103a5565b60405161010491906115bf565b60405180910390f35b34801561011957600080fd5b50610134600480360381019061012f919061162b565b610437565b6040516101419190611699565b60405180910390f35b34801561015657600080fd5b50610171600480360381019061016c91906116e0565b6104bc565b005b34801561017f57600080fd5b50610188610657565b604051610195919061172f565b60405180910390f35b6101b860048036038101906101b3919061174a565b610664565b005b3480156101c657600080fd5b506101e160048036038101906101dc91906116e0565b610933565b6040516101ee919061172f565b60405180910390f35b34801561020357600080fd5b5061021e6004803603810190610219919061162b565b6109e3565b60405161022b919061172f565b60405180910390f35b34801561024057600080fd5b5061025b6004803603810190610256919061162b565b610a47565b6040516102689190611699565b60405180910390f35b34801561027d57600080fd5b506102986004803603810190610293919061179d565b610b41565b6040516102a5919061172f565b60405180910390f35b3480156102ba57600080fd5b506102d560048036038101906102d0919061162b565b610bf8565b6040516102e291906115bf565b60405180910390f35b3480156102f757600080fd5b50610300610ca4565b60405161030d91906115bf565b60405180910390f35b34801561032257600080fd5b5061033d60048036038101906103389190611802565b610d36565b005b34801561034b57600080fd5b5061036660048036038101906103619190611977565b610ea1565b005b34801561037457600080fd5b5061038f600480360381019061038a91906119c0565b610fa4565b60405161039c9190611a0f565b60405180910390f35b6060600080546103b490611a59565b80601f01602080910402602001604051908101604052809291908181526020018280546103e090611a59565b801561042d5780601f106104025761010080835404028352916020019161042d565b820191906000526020600020905b81548152906001019060200180831161041057829003601f168201915b5050505050905090565b600061044282611038565b610481576040517f08c379a000000000000000000000000000000000000000000000000000000000815260040161047890611afc565b60405180910390fd5b6004600083815260200190815260200160002060009054906101000a900473ffffffffffffffffffffffffffffffffffffffff169050919050565b60006104c782610a47565b90508073ffffffffffffffffffffffffffffffffffffffff168373ffffffffffffffffffffffffffffffffffffffff1603610537576040517f08c379a000000000000000000000000000000000000000000000000000000000815260040161052e90611b8e565b60405180910390fd5b8073ffffffffffffffffffffffffffffffffffffffff163373ffffffffffffffffffffffffffffffffffffffff16146105a5576040517f08c379a000000000000000000000000000000000000000000000000000000000815260040161059c90611c20565b60405180910390fd5b826004600084815260200190815260200160002060006101000a81548173ffffffffffffffffffffffffffffffffffffffff021916908373ffffffffffffffffffffffffffffffffffffffff160217905550818373ffffffffffffffffffffffffffffffffffffffff168273ffffffffffffffffffffffffffffffffffffffff167f8c5be1e5ebec7d5bd14f71427d1e84f3dd0314c0f7b2291e5b200ac8c7c3b92560405160405180910390a4505050565b6000600680549050905090565b600073ffffffffffffffffffffffffffffffffffffffff168373ffffffffffffffffffffffffffffffffffffffff16036106d3576040517f08c379a00000000000000000000000000000000000000000000000000000000081526004016106ca90611cb2565b60405180910390fd5b600073ffffffffffffffffffffffffffffffffffffffff168273ffffffffffffffffffffffffffffffffffffffff1603610742576040517f08c379a000000000000000000000000000000000000000000000000000000000815260040161073990611d44565b60405180910390fd5b61074b81611038565b61078a576040517f08c379a000000000000000000000000000000000000000000000000000000000815260040161078190611db0565b60405180910390fd5b61079433826110aa565b6107d3576040517f08c379a00000000000000000000000000000000000000000000000000000000081526004016107ca90611e42565b60405180910390fd5b6001600360008573ffffffffffffffffffffffffffffffffffffffff1673ffffffffffffffffffffffffffffffffffffffff16815260200190815260200160002060008282546108239190611e91565b92505081905550816002600083815260200190815260200160002060006101000a81548173ffffffffffffffffffffffffffffffffffffffff021916908373ffffffffffffffffffffffffffffffffffffffff1602179055506001600360008473ffffffffffffffffffffffffffffffffffffffff1673ffffffffffffffffffffffffffffffffffffffff16815260200190815260200160002060008282546108cc9190611ec5565b92505081905550808273ffffffffffffffffffffffffffffffffffffffff168473ffffffffffffffffffffffffffffffffffffffff167fddf252ad1be2c89b69c2b068fc378daa952ba7f163c4a11628f55a4df523b3ef60405160405180910390a4505050565b600061093e83610b41565b821061097f576040517f08c379a000000000000000000000000000000000000000000000000000000000815260040161097690611f8d565b60405180910390fd5b600860008473ffffffffffffffffffffffffffffffffffffffff1673ffffffffffffffffffffffffffffffffffffffff16815260200190815260200160002082815481106109d0576109cf611fad565b5b9060005260206000200154905092915050565b60006006805490508210610a2c576040517f08c379a0000000000000000000000000000000000000000000000000000000008152600401610a239061204e565b60405180910390fd5b60076000838152602001908152602001600020549050919050565b6000610a5282611038565b610a91576040517f08c379a0000000000000000000000000000000000000000000000000000000008152600401610a8890611db0565b60405180910390fd5b60006002600084815260200190815260200160002060009054906101000a900473ffffffffffffffffffffffffffffffffffffffff169050600073ffffffffffffffffffffffffffffffffffffffff168173ffffffffffffffffffffffffffffffffffffffff1603610b38576040517f08c379a0000000000000000000000000000000000000000000000000000000008152600401610b2f906120ba565b60405180910390fd5b80915050919050565b60008073ffffffffffffffffffffffffffffffffffffffff168273ffffffffffffffffffffffffffffffffffffffff1603610bb1576040517f08c379a0000000000000000000000000000000000000000000000000000000008152600401610ba890612126565b60405180910390fd5b600360008373ffffffffffffffffffffffffffffffffffffffff1673ffffffffffffffffffffffffffffffffffffffff168152602001908152602001600020549050919050565b600a8181548110610c0857600080fd5b906000526020600020016000915090508054610c2390611a59565b80601f0160208091040260200160405190810160405280929190818152602001828054610c4f90611a59565b8015610c9c5780601f10610c7157610100808354040283529160200191610c9c565b820191906000526020600020905b815481529060010190602001808311610c7f57829003601f168201915b505050505081565b606060018054610cb390611a59565b80601f0160208091040260200160405190810160405280929190818152602001828054610cdf90611a59565b8015610d2c5780601f10610d0157610100808354040283529160200191610d2c565b820191906000526020600020905b815481529060010190602001808311610d0f57829003601f168201915b5050505050905090565b8173ffffffffffffffffffffffffffffffffffffffff163373ffffffffffffffffffffffffffffffffffffffff1603610da4576040517f08c379a0000000000000000000000000000000000000000000000000000000008152600401610d9b90612192565b60405180910390fd5b80600560003373ffffffffffffffffffffffffffffffffffffffff1673ffffffffffffffffffffffffffffffffffffffff16815260200190815260200160002060008473ffffffffffffffffffffffffffffffffffffffff1673ffffffffffffffffffffffffffffffffffffffff16815260200190815260200160002060006101000a81548160ff0219169083151502179055508173ffffffffffffffffffffffffffffffffffffffff163373ffffffffffffffffffffffffffffffffffffffff167f17307eab39ab6107e8899845ad3d59bd9653f200f220920489ca2b5937696c3183604051610e959190611a0f565b60405180910390a35050565b600b81604051610eb191906121ee565b908152602001604051809103902060009054906101000a900460ff1615610f0d576040517f08c379a0000000000000000000000000000000000000000000000000000000008152600401610f0490612277565b60405180910390fd5b600a81908060018154018082558091505060019003906000526020600020016000909190919091509080519060200190610f48929190611483565b5060006001600a80549050610f5d9190611e91565b9050610f693382611188565b6001600b83604051610f7b91906121ee565b908152602001604051809103902060006101000a81548160ff0219169083151502179055505050565b6000600560008473ffffffffffffffffffffffffffffffffffffffff1673ffffffffffffffffffffffffffffffffffffffff16815260200190815260200160002060008373ffffffffffffffffffffffffffffffffffffffff1673ffffffffffffffffffffffffffffffffffffffff16815260200190815260200160002060009054906101000a900460ff16905092915050565b6000806002600084815260200190815260200160002060009054906101000a900473ffffffffffffffffffffffffffffffffffffffff169050600073ffffffffffffffffffffffffffffffffffffffff168173ffffffffffffffffffffffffffffffffffffffff161415915050919050565b60006110b582611038565b6110f4576040517f08c379a00000000000000000000000000000000000000000000000000000000081526004016110eb90611db0565b60405180910390fd5b60006110ff83610a47565b90508073ffffffffffffffffffffffffffffffffffffffff168473ffffffffffffffffffffffffffffffffffffffff16148061116e57508373ffffffffffffffffffffffffffffffffffffffff1661115684610437565b73ffffffffffffffffffffffffffffffffffffffff16145b8061117f575061117e8185610fa4565b5b91505092915050565b61119282826111a9565b61119b8161136a565b6111a582826113bf565b5050565b600073ffffffffffffffffffffffffffffffffffffffff168273ffffffffffffffffffffffffffffffffffffffff1603611218576040517f08c379a000000000000000000000000000000000000000000000000000000000815260040161120f906122e3565b60405180910390fd5b61122181611038565b15611261576040517f08c379a000000000000000000000000000000000000000000000000000000000815260040161125890612375565b60405180910390fd5b816002600083815260200190815260200160002060006101000a81548173ffffffffffffffffffffffffffffffffffffffff021916908373ffffffffffffffffffffffffffffffffffffffff1602179055506001600360008473ffffffffffffffffffffffffffffffffffffffff1673ffffffffffffffffffffffffffffffffffffffff16815260200190815260200160002060008282546113039190611ec5565b92505081905550808273ffffffffffffffffffffffffffffffffffffffff16600073ffffffffffffffffffffffffffffffffffffffff167fddf252ad1be2c89b69c2b068fc378daa952ba7f163c4a11628f55a4df523b3ef60405160405180910390a45050565b600681908060018154018082558091505060019003906000526020600020016000909190919091505560016006805490506113a59190611e91565b600760008381526020019081526020016000208190555050565b600860008373ffffffffffffffffffffffffffffffffffffffff1673ffffffffffffffffffffffffffffffffffffffff168152602001908152602001600020819080600181540180825580915050600190039060005260206000200160009091909190915055600860008373ffffffffffffffffffffffffffffffffffffffff1673ffffffffffffffffffffffffffffffffffffffff1681526020019081526020016000208054905060096000838152602001908152602001600020819055505050565b82805461148f90611a59565b90600052602060002090601f0160209004810192826114b157600085556114f8565b82601f106114ca57805160ff19168380011785556114f8565b828001600101855582156114f8579182015b828111156114f75782518255916020019190600101906114dc565b5b5090506115059190611509565b5090565b5b8082111561152257600081600090555060010161150a565b5090565b600081519050919050565b600082825260208201905092915050565b60005b83811015611560578082015181840152602081019050611545565b8381111561156f576000848401525b50505050565b6000601f19601f8301169050919050565b600061159182611526565b61159b8185611531565b93506115ab818560208601611542565b6115b481611575565b840191505092915050565b600060208201905081810360008301526115d98184611586565b905092915050565b6000604051905090565b600080fd5b600080fd5b6000819050919050565b611608816115f5565b811461161357600080fd5b50565b600081359050611625816115ff565b92915050565b600060208284031215611641576116406115eb565b5b600061164f84828501611616565b91505092915050565b600073ffffffffffffffffffffffffffffffffffffffff82169050919050565b600061168382611658565b9050919050565b61169381611678565b82525050565b60006020820190506116ae600083018461168a565b92915050565b6116bd81611678565b81146116c857600080fd5b50565b6000813590506116da816116b4565b92915050565b600080604083850312156116f7576116f66115eb565b5b6000611705858286016116cb565b925050602061171685828601611616565b9150509250929050565b611729816115f5565b82525050565b60006020820190506117446000830184611720565b92915050565b600080600060608486031215611763576117626115eb565b5b6000611771868287016116cb565b9350506020611782868287016116cb565b925050604061179386828701611616565b9150509250925092565b6000602082840312156117b3576117b26115eb565b5b60006117c1848285016116cb565b91505092915050565b60008115159050919050565b6117df816117ca565b81146117ea57600080fd5b50565b6000813590506117fc816117d6565b92915050565b60008060408385031215611819576118186115eb565b5b6000611827858286016116cb565b9250506020611838858286016117ed565b9150509250929050565b600080fd5b600080fd5b7f4e487b7100000000000000000000000000000000000000000000000000000000600052604160045260246000fd5b61188482611575565b810181811067ffffffffffffffff821117156118a3576118a261184c565b5b80604052505050565b60006118b66115e1565b90506118c2828261187b565b919050565b600067ffffffffffffffff8211156118e2576118e161184c565b5b6118eb82611575565b9050602081019050919050565b82818337600083830152505050565b600061191a611915846118c7565b6118ac565b90508281526020810184848401111561193657611935611847565b5b6119418482856118f8565b509392505050565b600082601f83011261195e5761195d611842565b5b813561196e848260208601611907565b91505092915050565b60006020828403121561198d5761198c6115eb565b5b600082013567ffffffffffffffff8111156119ab576119aa6115f0565b5b6119b784828501611949565b91505092915050565b600080604083850312156119d7576119d66115eb565b5b60006119e5858286016116cb565b92505060206119f6858286016116cb565b9150509250929050565b611a09816117ca565b82525050565b6000602082019050611a246000830184611a00565b92915050565b7f4e487b7100000000000000000000000000000000000000000000000000000000600052602260045260246000fd5b60006002820490506001821680611a7157607f821691505b602082108103611a8457611a83611a2a565b5b50919050565b7f4552433732313a20617070726f76656420717565727920666f72206e6f6e657860008201527f697374656e7420746f6b656e0000000000000000000000000000000000000000602082015250565b6000611ae6602c83611531565b9150611af182611a8a565b604082019050919050565b60006020820190508181036000830152611b1581611ad9565b9050919050565b7f4552433732313a617070726f766520617070726f76616c5f746f5f637572726560008201527f6e745f6f776e6572000000000000000000000000000000000000000000000000602082015250565b6000611b78602883611531565b9150611b8382611b1c565b604082019050919050565b60006020820190508181036000830152611ba781611b6b565b9050919050565b7f4552433732313a617070726f76652073656e6465725f6e6f745f615f6f776e6560008201527f7200000000000000000000000000000000000000000000000000000000000000602082015250565b6000611c0a602183611531565b9150611c1582611bae565b604082019050919050565b60006020820190508181036000830152611c3981611bfd565b9050919050565b7f4552433732313a7472616e7366657246726f6d3a3a66726f6d20696e76616c6960008201527f645f616464726573730000000000000000000000000000000000000000000000602082015250565b6000611c9c602983611531565b9150611ca782611c40565b604082019050919050565b60006020820190508181036000830152611ccb81611c8f565b9050919050565b7f4552433732313a7472616e7366657246726f6d3a3a746f20696e76616c69645f60008201527f6164647265737300000000000000000000000000000000000000000000000000602082015250565b6000611d2e602783611531565b9150611d3982611cd2565b604082019050919050565b60006020820190508181036000830152611d5d81611d21565b9050919050565b7f4552433732313a6f776e65724f6620696e7661696c64746f6b656e4964000000600082015250565b6000611d9a601d83611531565b9150611da582611d64565b602082019050919050565b60006020820190508181036000830152611dc981611d8d565b9050919050565b7f4552433732313a207472616e736665722063616c6c6572206973206e6f74206f60008201527f776e6572206e6f7220617070726f766564000000000000000000000000000000602082015250565b6000611e2c603183611531565b9150611e3782611dd0565b604082019050919050565b60006020820190508181036000830152611e5b81611e1f565b9050919050565b7f4e487b7100000000000000000000000000000000000000000000000000000000600052601160045260246000fd5b6000611e9c826115f5565b9150611ea7836115f5565b925082821015611eba57611eb9611e62565b5b828203905092915050565b6000611ed0826115f5565b9150611edb836115f5565b9250827fffffffffffffffffffffffffffffffffffffffffffffffffffffffffffffffff03821115611f1057611f0f611e62565b5b828201905092915050565b7f455243373231456e756d657261626c653a746f6b656e4f664f776e657242794960008201527f6e64657820696e76616c69645f696e6465780000000000000000000000000000602082015250565b6000611f77603283611531565b9150611f8282611f1b565b604082019050919050565b60006020820190508181036000830152611fa681611f6a565b9050919050565b7f4e487b7100000000000000000000000000000000000000000000000000000000600052603260045260246000fd5b7f455243373231456e756d657261626c653a746f6b656e4279496e64657820696e60008201527f76616c69645f696e646578000000000000000000000000000000000000000000602082015250565b6000612038602b83611531565b915061204382611fdc565b604082019050919050565b600060208201905081810360008301526120678161202b565b9050919050565b7f4552433732313a6f776e65724f6620696e76616c69645f616464726573730000600082015250565b60006120a4601e83611531565b91506120af8261206e565b602082019050919050565b600060208201905081810360008301526120d381612097565b9050919050565b7f4552433732313a62616c616e63654f6620696e76616c69645f61646472657373600082015250565b6000612110602083611531565b915061211b826120da565b602082019050919050565b6000602082019050818103600083015261213f81612103565b9050919050565b7f4552433732313a20617070726f766520746f2063616c6c657200000000000000600082015250565b600061217c601983611531565b915061218782612146565b602082019050919050565b600060208201905081810360008301526121ab8161216f565b9050919050565b600081905092915050565b60006121c882611526565b6121d281856121b2565b93506121e2818560208601611542565b80840191505092915050565b60006121fa82846121bd565b915081905092915050565b7f4b727970746f426972647a3a206b727970746f5f626972645f616c726561647960008201527f5f65786973740000000000000000000000000000000000000000000000000000602082015250565b6000612261602683611531565b915061226c82612205565b604082019050919050565b6000602082019050818103600083015261229081612254565b9050919050565b7f4552433732313a5f6d696e7420696e76616c69645f6164647265737300000000600082015250565b60006122cd601c83611531565b91506122d882612297565b602082019050919050565b600060208201905081810360008301526122fc816122c0565b9050919050565b7f4552433732313a5f6d696e7420746f6b656e49645f616c72656164795f6d696e60008201527f7465640000000000000000000000000000000000000000000000000000000000602082015250565b600061235f602383611531565b915061236a82612303565b604082019050919050565b6000602082019050818103600083015261238e81612352565b905091905056fea26469706673582212200866e69b67f55e915f9293e82c02527735ea6d0a5fba64af6c4787fc58b6831964736f6c634300080d0033",
  "immutableReferences": {},
  "source": "// SPDX-License-Identifier: MIT\npragma solidity ^0.8.0;\n\nimport './ERC721Connector.sol';\n\ncontract KryptoBirdz is ERC721Connector {\n    \n    string[] public kryptoBirdz;\n    mapping(string => bool) _kryptoBirdzExist;\n    \n    constructor() ERC721Connector('KryptoBirdz', 'KBZ') {\n    }\n\n    function mint(string memory _kryptoBird) public {\n        require(!_kryptoBirdzExist[_kryptoBird], 'KryptoBirdz: krypto_bird_already_exist');\n\n        kryptoBirdz.push(_kryptoBird);\n        uint256 _id = kryptoBirdz.length -1;\n        _mint(msg.sender, _id);\n        _kryptoBirdzExist[_kryptoBird] = true;\n    }\n}",
  "sourcePath": "/Volumes/Code/simple-nft-marketplace/src/contracts/contracts/KryptoBirdz.sol",
  "compiler": {
    "name": "solc",
    "version": "0.8.13+commit.abaa5c0e.Emscripten.clang"
  },
  "schemaVersion": "3.4.7",
  "updatedAt": "2022-05-10T17:35:02.513Z",
  "networkType": "ethereum",
  "devdoc": {
    "kind": "dev",
    "methods": {
      "tokenByIndex(uint256)": {
        "details": "Returns a token ID at a given `index` of all the tokens stored by the contract. Use along with {totalSupply} to enumerate all tokens."
      },
      "tokenOfOwnerByIndex(address,uint256)": {
        "details": "Returns a token ID owned by `owner` at a given `index` of its token list. Use along with {balanceOf} to enumerate all of ``owner``'s tokens."
      }
    },
    "version": 1
  },
  "userdoc": {
    "kind": "user",
    "methods": {},
    "version": 1
  }
}